:020000040800F2
:10000000880400206901000811050008A503000804
:1000100000000000000000000000000000000000E0
:100020000000000000000000000000008B05000838
:10003000000000000000000013050008D9050008BA
:100040007B0100087B0100087B0100087B010008A0
:100050007B0100087B0100087B0100087B01000890
:100060007B0100087B0100087B0100087B01000880
:100070007B0100087B0100087B0100087B01000870
:100080007B0100087B0100087B0100087B01000860
:100090007B0100087B0100087B0100087B01000850
:1000A0007B0100087B0100087B0100087B01000840
:1000B0007D0600087B0100087B0100087B01000829
:1000C0007B0100087B0100087B0100087B01000820
:1000D0007B0100087B010008000000007B01000894
:1000E0007B0100087B0100087B0100087B01000800
:1000F0000000000000000000000000007B0100087C
:1001000000000000000000000000000000000000EF
:100110000000000000000000000000007B0100085B
:100120007B0100087B0100087B0100087B010008BF
:100130007B0100087B0100087B0100087B010008AF
:100140007B0100087B0100087B0100087B0100089F
:100150007B0100080348854600F014F8004800477A
:100160006F0A0008880400200448804704480047BC
:10017000FEE7FEE7FEE7FEE7FEE7FEE7E105000833
:10018000550100081CB50948009009480190054632
:100190000126009C05E0E36807CC33430C3C9847FC
:1001A0001034AC42F7D3FFF7D9FF0000D41B00088E
:1001B000F41B000880B582B0104800F0F5FFCF486E
:1001C00000F0F2FFCC4800F0EFFF0920C00601214B
:1001D00000910022019240F2C07300F0BCFB009934
:1001E000019AC848032300F0B6FB0099019A04481D
:1001F000044B00F0B0FB02B080BDC0461305000008
:1002000000080048C71D000080B584B0BA4800F05F
:10021000CBFF0920C0060190012103910022029228
:10022000132300F098FB029A0399B648C02300F00C
:1002300092FB01980299039A202300F08CFB04B0F2
:1002400080BDC04680B586B0AE4800908021029146
:1002500000F05CFB0A20019000F0E2FA009802999D
:1002600000F05CFB019800F0DBFA00F08FF8122040
:1002700000F058F800F08AF80120059000F052F8DC
:100280005520049000F068F8059800F065F805988E
:1002900000F062F8112000F045F8059800F05CF8D5
:1002A000442000F03FF80020039000F055F80F20A4
:1002B00000F052F8452000F035F8049800F04CF8B2
:1002C000059800F049F8039800F046F8039800F00C
:1002D00043F83C2000F026F8052000F03DF81820F7
:1002E00000F020F8029800F037F8212000F01AF80A
:1002F000039800F031F8029800F02EF84E2000F03C
:1003000011F8039800F028F84F2000F00BF804983B
:1003100000F022F8059800F01FF800F037F806B05A
:1003200080BDC04680B584B003A900910870092043
:10033000C00601901021029100F0E8FA71484021B6
:1003400000F0E4FA0098007800F0E4F801980299CF
:1003500000F0E4FA04B080BD80B584B003A9009138
:1003600008700920C00601901021029100F0CEFA19
:100370006448402100F0D2FA0098007800F0CAF8F2
:100380000198029900F0CAFA04B080BD80B5FFE779
:100390000920C006202100F0C9FA08B9FFE700E0F3
:1003A000F6E780BDFFE7FEE710B596B0159052481E
:1003B00000F0FAFE514800F0F7FE514800F0F4FE5C
:1003C0000920C00601900221099100220792C02352
:1003D000029300F0C0FA0198029B079903220B9246
:1003E00000F000FB0198029A0121089100F02EFA1A
:1003F000079A09990B9B4348039000F0ACFA0398C5
:1004000007990B9B1A4600F0EDFA039808990B9A8E
:1004100000F01CFA3C480C9001F0C6F811A80490BA
:1004200001F078F9099800F0D7FB0499079A034680
:100430000C980E930E9C354BB4FBF3F4641E0C80A9
:10044000159CB3FBF4F35B1E13934A808A808A8168
:1004500001F01AF90FA8059001F09DF8059A079987
:10046000089B0C980F93918000F064FF059A0899FF
:100470000C9800F05FFF059A09990C9800F05AFF5C
:10048000059A0B990C9800F055FF07990C9860227B
:10049000069200F0F7FF069A08990C9800F0F2FF18
:1004A000069A09990C9800F0EDFF069A0B990C98A2
:1004B00000F0E8FF07990C98139A521C53080DAAF4
:1004C0000A921380128801F03DF808990A9A0C9854
:1004D000128801F037F809990A9A0C98128801F0ED
:1004E00031F80A9A0B990C98128801F02BF80C98A5
:1004F00001F0C0F816B010BD110500001205000093
:1005000001070000000400480004004040420F00C2
:100510007047704780B584B003A908700920C006F1
:10052000022100F0F3F902A900200870FFE702A8F9
:100530000078072827DCFFE703A8007800060028DA
:1005400006D5FFE70920C006012100F0E7F905E024
:100550000920C006012100F0D9F9FFE70920C006F3
:1005600000900221019100F0D9F90098019900F062
:10057000CDF90398400003A90870FFE70298401CDA
:1005800002A90870D3E704B080BD704780B584B07D
:1005900002900298401E000E18B1FFE70120039060
:1005A00011E00298401E0949086000200190C043F4
:1005B000032100F0A9F8019805490860054A0721C0
:1005C00011600390FFE7039804B080BD14E000E0E1
:1005D00018E000E010E000E080B500F015F980BD03
:1005E00010B582B01D490868012210430860FFE77A
:1005F0001A4800688007002801D4FFE7F8E7184987
:100600000868032290430860144B1868154C20407A
:1006100018600868144B184008600868134B1840AD
:100620000860134908680F23984308601149086857
:1006300040F20313984308600868920790430860EB
:100640000D4900200190086000F05CFE0199012036
:10065000C00600F039FA02B010BDC04600100240DA
:1006600004100240FFFFF2FE0C00FF08FFFF007FB6
:100670002C100240301002400810024080B5104992
:100680000868401C08600F480F4901F005FA38B1AE
:10069000FFE70C4801F070F9C0B201F04DF8FFE738
:1006A00008480A4901F0F8F948B1FFE70849086825
:1006B000401C08600348054901F0CEF9FFE780BD02
:1006C0006400002000440040050005070500030702
:1006D0007C00002081B00146684601700021405630
:1006E00000280DD4FFE70021684641561F200A4626
:1006F00002400120904049098900024A8850FFE7E2
:1007000001B0704700E100E070B582B0024601A878
:100710000270009100214056002816D4FFE7002403
:1007200001A908570322D3431840364A8058095775
:100730008C07E50EFF24AC40A043009CA401E4B26A
:10074000AC402043194088501AE001A908780F24D2
:10075000204008380322D3431840294A80580025F6
:1007600049578D07EE0EFF25B540A843009DAD010A
:10077000EDB2B54028432140083919408850FFE7C1
:1007800002B070BD70B582B0024601A8027000913F
:1007900000214056002816D4FFE7002401A908577D
:1007A0000322D3431840174A805809578C07E50E97
:1007B000FF24AC40A043009CA401E4B2AC40204321
:1007C000194088501AE001A908780F242040083801
:1007D0000322D34318400A4A8058002549578D0701
:1007E000EE0EFF25B540A843009DAD01EDB2B5402A
:1007F00028432140083919408850FFE702B070BDF6
:100800001CED00E000E400E00448006828B1FFE7C8
:1008100002490868401E0860FFE770470800002092
:1008200082B00190FFE70198411E019150B1FFE7AE
:1008300005480090FFE70098411E009108B1FFE7CE
:10084000F9E7F0E702B07047E02E000086B00590AF
:10085000049103920598006A01900598406A0090FF
:1008600002A900200880FFE702A8008807281DD8F9
:10087000FFE702A801880398C840C00780B1FFE7DE
:1008800002A8018889000F228A40019991430191B1
:100890000499008880008140019808430190FFE797
:1008A000FFE70298401C02A90880DDE702A90820A2
:1008B0000880FFE702A800880F281FD8FFE702A8DA
:1008C00001880398C840C00790B1FFE702A80188DB
:1008D000890020390F228A400099914300910499A0
:1008E0000088800020388140009808430090FFE78E
:1008F000FFE70298401C02A90880DBE701980599F0
:10090000086200980599486206B0704782B001906D
:10091000009100980199886202B0704782B00190FE
:10092000009100980199886102B0704783B00190EE
:100930000091019800690099084204D0FFE702A9DC
:100940000120087003E002A900200870FFE702A858
:10095000007803B0704787B0069005910492039326
:100960000698006801900698C068009002A90020CF
:100970000880FFE702A800880F282BD8FFE702A80D
:1009800001880398C840C007F0B1FFE702A80188BA
:100990004900032213468B40019999430191059B1D
:1009A000018849008B400199194301910188490050
:1009B0008A40009991430091049900884000814049
:1009C000009808430090FFE7FFE70298401C02A947
:1009D0000880CFE701980699086000980699C860DA
:1009E00007B0704710B586B0059004A80170039257
:1009F00002930078012806D1FFE7029A059948681A
:100A00001043486005E0029A0599486890434860A1
:100A1000FFE705988068009001A900200880FFE7A3
:100A200001A800880F281DD8FFE701A801880298B7
:100A3000C840C00780B1FFE701A801884900032230
:100A40008A400099914300910399008840008140B9
:100A5000009808430090FFE7FFE70198401C01A9B8
:100A60000880DDE700980599886006B010BD80B564
:100A700082B00020019000F049FCFFF79BFB00F0E2
:100A80001BFF7B20009040F2E830FFF78DFCFFF762
:100A9000BBFBFFF7D7FBFFE7FEE780B584B00A4654
:100AA000014603A80190017002A90A700022009279
:100AB00080560978FFF766FE009901984056FFF7C7
:100AC00009FE04B080BD000082B001900091019841
:100AD0000099044A1140084303490860BFF34F8F4F
:100AE00002B0704780FFFF1F08ED00E0B0B58CB08A
:100AF0000B900B98C07801A9009108700B98001D0D
:100B000000F088FB009902900B98007A08720B980D
:100B1000093000F07FFB009904900B98407B08742B
:100B20000B980E3000F076FB009906900B98807CB5
:100B300008760B98133000F06DFB009908900B9825
:100B4000C07D202288540B98183000F063FB009978
:100B50000A9015481CC91CC01CC91CC03CC93CC01B
:100B600001981249087002981149086003981149C8
:100B70000870049810490860059810490870069894
:100B80000F49086007980F49087008980E490860D7
:100B900009980E4908700A980D4908600D4901200E
:100BA00008700CB0B0BDC0462C00002084000020AE
:100BB000800000206100002058000020600000201C
:100BC0005C00002074000020700000206C000020F9
:100BD0006800002054000020A0B01FA90870002069
:100BE00002901E901D901C901B901A9019901890C6
:100BF00017901690159014901390129011901090D9
:100C00000F900E90F9490D91F9490C910B900A90B3
:100C1000099108900791069005910490F5480068A5
:100C20000C21084080081E901E98039040B1FFE7F9
:100C30000398012807D0FFE70398022806D065E053
:100C4000ED481A9065E0ED481A9062E0E9480168C5
:100C50003F2292041140890C139100680121C906BA
:100C60000840C00E129012988001139940181390FA
:100C700013980F2804D3FFE71398401C13900BE040
:100C800013980F2803D1FFE71020139003E0139867
:100C9000801C1390FFE7FFE7D64800680321090492
:100CA0000840000C1190119870B9FFE7D448006813
:100CB0000F210840401C10901099CF48B0FBF1F173
:100CC000139848431A9020E0119801280ED1FFE7AD
:100CD000CB4800680F210840401C10901099C7486D
:100CE000B0FBF1F1139848431A900DE0C448006836
:100CF0000F210840401C10901099C248B0FBF1F140
:100D0000139848431A90FFE7FFE702E0BA481A90A9
:100D1000FFE7B8480168C9B209090F910F9A0AA9FB
:100D2000895C0E911A990E9AD1401991016840F28E
:100D300000721140090A0F910F9A08A9895C0E915F
:100D400019990E9AD1401891006843F600010840A5
:100D5000C00A0F900F9906A8405C0E9019980E9942
:100D6000C84017901FA8007801900B2800D90FE207
:100D700001998A0001A080188746C04600F016B885
:100D800000F017B800F018B800F019B800F01AB861
:100D900000F0EBB800F0FCB900F0FAB900F0F8B9D7
:100DA00000F06FB900F01CB900F0AEB91A981B90B2
:100DB000EFE119981B90ECE118981B90E9E1179866
:100DC0001B90E6E1F748006840F2001108408842B5
:100DD00003D0FFE7F1481690C4E0EF48006880B206
:100DE000800B1D90EF480068800F1C901D980090AC
:100DF000032800D9B4E000998A0001A08018874632
:100E000000F006B800F02EB800F056B800F080B838
:100E10001C9820B9FFE717984008169021E01C980D
:100E2000012806D1FFE717980A21B0FBF1F01690D0
:100E300016E01C98022806D1FFE719980321B0FBA1
:100E4000F1F016900BE01C98032806D1FFE71998E3
:100E50000B21B0FBF1F0169000E0FFE7FFE7FFE7A2
:100E6000FFE77EE01C9820B9FFE7179880081690EE
:100E700021E01C98012806D1FFE717980C21B0FB50
:100E8000F1F0169016E01C98022806D1FFE7199899
:100E90000521B0FBF1F016900BE01C98032806D159
:100EA000FFE719980D21B0FBF1F0169000E0FFE785
:100EB000FFE7FFE7FFE754E01C9830B9FFE717981A
:100EC0000621B0FBF1F0169021E01C98012806D114
:100ED000FFE717980E21B0FBF1F0169016E01C9872
:100EE000022806D1FFE719980721B0FBF1F0169010
:100EF0000BE01C98032806D1FFE719980F21B0FBDF
:100F0000F1F0169000E0FFE7FFE7FFE7FFE728E0DA
:100F10001C9820B9FFE71798C00816901FE01C988E
:100F2000012804D1FFE717980009169016E01C98D5
:100F3000022806D1FFE719980921B0FBF1F01690BD
:100F40000BE01C98032806D1FFE719981121B0FB8C
:100F5000F1F0169000E0FFE7FFE7FFE7FFE700E0B2
:100F6000FFE7FFE716981B9013E18E4800688007A3
:100F700018B9FFE7179815902FE08A4800680321F9
:100F80000840012803D1FFE71A98159024E085480E
:100F9000006803210840022804D1FFE748F200005E
:100FA000159018E07F48006803210840032810D1FD
:100FB000FFE77C480068072189040840800C0F90F7
:100FC0000F9904A8405C0E900E997548C840159082
:100FD00000E0FFE7FFE7FFE7FFE715981B90D8E089
:100FE000704800688003800F88B90DE00607080983
:100FF00001020304041002400024F40000127A00ED
:101000002C100240006CDC021898159036E0654800
:10101000006803210904084001210904884203D122
:10102000FFE71A98159028E05E480068032109043C
:10103000084001214904884204D1FFE748F200003A
:10104000159019E0574800680321090408408842B8
:1010500010D1FFE753480068072189040840800C3D
:101060000F900F9904A8405C0E900E994C48C84010
:10107000159000E0FFE7FFE7FFE7FFE715981B90FB
:1010800087E048480068C004800F18B9FFE7189847
:10109000159036E04348006841F60001084040F6EC
:1010A0000001884203D1FFE71A98159028E03D48D7
:1010B000006841F60001084041F20001884204D175
:1010C000FFE748F20000159019E03648006841F645
:1010D00000010840884210D1FFE73248006807212C
:1010E00089040840800C0F900F9904A8405C0E9072
:1010F0000E992B48C840159000E0FFE7FFE7FFE797
:10110000FFE715981B9044E0264800684005800FD3
:1011100018B9FFE71898149037E02248006840F2A9
:101120000061084040F20021884204D1FFE747F601
:101130000050149028E01B48006840F2006108400D
:1011400040F20041884204D1FFE748F200001490C9
:1011500019E01448006840F200610840884210D14C
:10116000FFE710480068072189040840800C0F90B1
:101170000F9904A8405C0E900E990948C84015903C
:1011800000E0FFE7FFE7FFE7FFE714981B9000E0B0
:10119000FFE71B9820B0704704100240006CDC028F
:1011A0000024F4003010024081B0014668460180FE
:1011B00000881F220146114001238B4081094E4ABD
:1011C00088581843885001B07047C04681B0014626
:1011D0006846018000881F220146114001238B4090
:1011E0008109454A88589843885001B07047C046E5
:1011F00081B001466846018000881F2201461140E7
:1012000001238B4081093C4A88581843885001B01B
:101210007047C04683B002900298C178684601705A
:101220000299897841700299497881700299097808
:10123000C170027841780902891882781204C07856
:101240000006801840180190019803B07047000014
:1012500085B0002004900390274A116801231B04E5
:10126000194311600290FFE70298400B28B9FFE78D
:10127000FFE70298401C0290F6E7FFE70498401C45
:1012800004901D4800680121490408400390FFE7CD
:1012900003990020019039B9FFE704981749401AD3
:1012A000411E88410190FFE70198C0070028E5D161
:1012B000FFE7114800688003002802D4FFE7FFE73A
:1012C000FEE70F4900910868086008680860086830
:1012D00008600868032290430860086801221043F0
:1012E0000860FFE7064800680C210840042801D088
:1012F000FFE7F7E705B0704700100240FFFF00006E
:101300000410024080B5FFF7A3FF80BD80B50848F8
:10131000006840F2E831B0FBF1F0FFF737F910B1A7
:10132000FFE7FFE7FEE70021C843FFF7EDF980BDC7
:101330000000002085B0049003A80180029200887C
:101340000090032800D999E000998A0001A0801834
:101350008746C04600F006B800F024B800F045B853
:1013600000F067B80499086A012290430862049962
:101370008869032290438861029802680499086A88
:10138000104308620498006A019001980221884382
:10139000019002988188019808430190019804996E
:1013A00008626CE00499086A10229043086204996C
:1013B000886940F200329043886102980068020117
:1013C0000499086A104308620498006A0190019821
:1013D00020218843019002988088010101980843E8
:1013E000019001980499086249E00499086A40F262
:1013F0000012904308620499C86903229043C861AF
:101400000298006802020499086A1043086204986E
:10141000006A0190019840F20021884301900298EF
:10142000808801020198084301900198049908629C
:1014300025E00499086A41F2000290430862049989
:10144000C86940F200329043C86102980068020304
:101450000499086A104308620498006A0190019890
:1014600042F20001884301900298808801030198AC
:101470000843019001980499086200E0FFE705B075
:101480007047000085B0049003A8018002A90A807B
:1014900000880090032851D800998A0001A0801884
:1014A0008746C04600F006B800F014B800F024B833
:1014B00000F032B804988069019001987021884347
:1014C000019002A8018801980843019001980499AD
:1014D000886134E0049880690190019847F2000126
:1014E0008843019002A800880102019808430190F6
:1014F00001980499886122E00498C06901900198DC
:1015000070218843019002A8018801980843019046
:1015100001980499C86112E00498C069019001988B
:1015200047F200018843019002A800880102019857
:101530000843019001980499C86100E0FFE705B0F5
:101540007047000084B0039002A8018001920088D7
:10155000009003281CD800998A0001A080188746B3
:1015600000F006B800F008B800F00AB800F00CB8B7
:101570000198039948630CE001980399886308E097
:1015800001980399C86304E001980399086400E096
:10159000FFE704B0704781B0009000990020086018
:1015A0000099888001B0704780B588B0079007988F
:1015B000069001218907884219D0FFE70698534910
:1015C00088421DD0FFE706985149884220D0FFE7A6
:1015D00006982149884223D0FFE706981F49884290
:1015E0002ED0FFE706981E49884221D031E040F214
:1015F00000400590FFF7FCFD0598FFF7E7FD29E0A7
:101600001B480490FFF7F4FD0498FFF7DFFD21E08D
:1016100016480390FFF7ECFD0398FFF7D7FD19E09C
:1016200011480290FFF7E4FD0298FFF7CFFD11E0AB
:101630000C480190FFF7DCFD0198FFF7C7FD09E0BA
:1016400040F208400090FFF7D3FD0098FFF7BEFD81
:1016500000E0FFE708B080BD001400400018004023
:10166000004C01400B0300000504000004040000CE
:101670000104000081B00090009908680122104325
:10168000086001B07047000082B00190009100989E
:10169000008801998862019801218907884205D054
:1016A000FFE701981949884212D1FFE701990868BC
:1016B000702290430860009842880199086810439E
:1016C0000860009882880199086810430860FFE765
:1016D000009880680199C86201980D4988420DD030
:1016E000FFE70199086840F20032904308600098D3
:1016F00082890199086810430860FFE701994869E9
:1017000001221043486102B07047C0460004004007
:101710000010004081B000900099002008800099DE
:10172000488000998880009A0249916000998881D8
:1017300001B07047FFFF000080B582B001A90870BA
:1017400024490868401C08602348007838B9FFE73E
:1017500001A80078012801D0FFE739E026E01E4803
:101760000078012811D1FFE701A8007803280BD0E9
:10177000FFE701A80078401E414248411649087021
:1017800001981649087023E00FE0134800780228FA
:101790000AD1FFE701A80078052804D0FFE70E4929
:1017A0000020087014E0FFE7FFE7FFE701990A480F
:1017B00003785A1C0270094AD15400781E2807D3B6
:1017C000FFE70648FFF792F9034900200870FFE79A
:1017D00002B080BD780000202A0000200C0000200C
:1017E00080B588B007900691002005900490039082
:1017F0000290079801908349884214D0FFE701982E
:101800008149884214D0FFE701988049884214D06A
:10181000FFE701987E49884214D1FFE70520FFF7D2
:10182000DBF905900FE00A20FFF7D6F905900AE0F2
:101830000220FFF7D1F9059005E00220FFF7CCF96F
:10184000059000E0FFE7079800680004002818D51D
:10185000FFE70598400006994A088018B0FBF1F0B0
:101860000290029813490840049002980007400F24
:10187000039004A8008803A9098808430799C86051
:1018800016E0059806994A088018B0FBF1F002901E
:10189000029808490840049002980F2108400390DC
:1018A00004A8008803A9098808430799C860FFE7CE
:1018B00008B080BDF0FF000080B588B02C48FFF76D
:1018C00073FC2C48FFF770FC0920C006029007212A
:1018D000009104220492FEF7B9FF009902980822B1
:1018E0000592FEF7B3FF0298049B022101910122A9
:1018F0000392FFF730F80298039A049B00210791A6
:10190000FFF770F801990298039A059BFFF723F8F7
:101910000298039A059B0799FFF764F839480690E7
:1019200000F034F80698079900F02FF90698079907
:1019300000F007F90698079900F0DFF80698E12112
:101940004902FFF74DFF0499069800F0EBF805995E
:10195000069800F00BF9069800F064F80698052147
:1019600000F069F807991C20FFF797F808B080BDD0
:10197000110500001107000081B000900098406A36
:101980000149084001B07047FF01000080B586B0F2
:101990000590059804901B49884217D0FFE70498EA
:1019A000194988421AD0FFE70498184988421DD087
:1019B000FFE704981649884220D1FFE718480390B2
:1019C000FFF716FC0398FFF701FC18E0134802909C
:1019D000FFF70EFC0298FFF7F9FB10E00E480190AC
:1019E000FFF706FC0198FFF7F1FB08E009480090BB
:1019F000FFF7FEFB0098FFF7E9FB00E0FFE706B00A
:101A000080BDC04600440040004C004000500040F3
:101A10000038014014040000130400001104000009
:101A20000E03000081B00090009908680122104365
:101A3000086001B0704782B001906846018000885C
:101A40001F220146114001238B40019982098858C9
:101A50001843885002B0704782B0019000910098FE
:101A60000C49884208D1FFE70199D022885848F2F2
:101A70000003984388500BE000981F210904084098
:101A8000000C012282400199086A10430862FFE7B6
:101A900002B0704709340F3410B585B0039002913D
:101AA000002001900090039802A9098889094058F4
:101AB000029C1F231C4001210A46A24010400190B5
:101AC0000398029A920D8058029A1B041A40120C35
:101AD000914008400090009838B1FFE7019820B18C
:101AE000FFE704A90120087003E004A900200870A2
:101AF000FFE704A8007805B010BD82B00190009106
:101B0000019908680122904308600199086840F231
:101B1000006290430860009A0199086810430860C9
:101B200002B0704782B001900091019908680422C8
:101B300090430860009A019908681043086002B059
:101B4000704782B00190009101990868012290438A
:101B500008600199486843F2000290434860009A87
:101B6000019948681043486002B0704782B0019004
:101B7000009101990868082290430860009A019931
:101B800008681043086002B0704782B0019000916D
:101B9000019908680122904308600199086841F2A0
:101BA000000290430860009A019908681043086099
:101BB00002B0704702E008C8121F08C1002AFAD11B
:101BC00070477047002001E001C1121F002AFBD1BD
:101BD00070470000F81B000800000020080000000B
:101BE000B41B0008001C000808000020800400004E
:101BF000C41B00080000000000127A000000000072
:040000050800015599
:00000001FF
