:020000040800F2
:100000000817002069010008750D0008090C000898
:1000100000000000000000000000000000000000E0
:10002000000000000000000000000000C1150008F2
:10003000000000000000000049150008111600082B
:100040007B0100087B0100087B0100087B010008A0
:100050007B0100087B0100087B0100087B01000890
:100060007B0100087B0100087B0100087B01000880
:100070007B0100087B0100087B0100087B01000870
:100080007B0100087B0100087B0100087B01000860
:100090007B0100087B0100087B0100087B01000850
:1000A0007B0100087B0100087B0100087B01000840
:1000B000B51600087B0100087B0100087B010008E1
:1000C0007B0100087B0100087B0100087B01000820
:1000D0007B0100087B010008000000007B01000894
:1000E0007B0100087B0100087B0100087B01000800
:1000F0000000000000000000000000007B0100087C
:1001000000000000000000000000000000000000EF
:100110000000000000000000000000007B0100085B
:100120007B0100087B0100087B0100087B010008BF
:100130007B0100087B0100087B0100087B010008AF
:100140007B0100087B0100087B0100087B0100089F
:100150007B0100080348854600F008FB0048004783
:10016000CF1C0008081700200448804704480047B7
:10017000FEE7FEE7FEE7FEE7FEE7FEE719160008EA
:1001800055010008F8B502464A40D40F42004B0022
:1001900052085B089A4202D20246084611464A00BB
:1001A00023D0C30D4A00DDB2120EAD1A202D35DA70
:1001B00049020126490AF6058A19002C00D052424C
:1001C00020214F1B1146B9402A411018C20D9A42F6
:1001D00021D0002C17D0012D08DCDA05801AD20FAF
:1001E0008019D207DBB200F0C2F8F8BDDA05801A38
:1001F000012340001B06C01880185A428018CA0FFD
:100200001043490007E04908C2071143DA05801A84
:1002100080194008801800F0A2F8F8BD61000122A2
:10022000511A001BF7E70122D2075140AAE7012229
:10023000D2075040A6E7024670B54A40D30FDB070D
:1002400040002DD04A002AD0010E140E00021202E6
:100250000919400A520A8418E50104465443000A69
:10026000120A2E045043A4194219200CC543AA189F
:10027000120C0125AD03521C521912047F392404BB
:1002800000D0521C104301D44000491EC2B20C06DB
:10029000C0092018401C4008802A02D003E000203A
:1002A00070BD40084000002900DA0020184370BDEE
:1002B0000122D207002800DB101A002900DB511AA6
:1002C000814201D30120704700207047C20F4100D6
:1002D00040020123400ADB05D207090EC0187F291E
:1002E00001DA00207047962903DC9623591AC8408A
:1002F00001E096398840002AF4D040427047F0B5BA
:100300001FB40646002082B00546402401910090AB
:100310001BE0019922460F46304600F06EFA049A1F
:10032000059B801A994110D310461946224600F0C9
:1003300054FA361A8F410197224601200021009F6E
:1003400000F04BFA38184D4100902046641E0028FA
:10035000DFDC019B00982946324607B0F0BD00293A
:1003600004DA401C490001D140084000704770B4D5
:100370000024050C05D11024000402D1002921D04D
:100380001124050E01D100020834050F01D100012E
:10039000241D850F01D18000A41C002801DB400032
:1003A000641C002908D020252E1B0D46F540A140D5
:1003B00000D001212943084301061B1B000ADB1D55
:1003C00002D5002070BC7047DB0518188018002982
:1003D000F8DA401C4900F5D170BC40084000704775
:1003E000F0B507460846584087B0C00F0490480053
:1003F0000E46590040084908BC1A884105D23846C3
:1004000031461E4617460B46024658004008104328
:100410004CD0300D039040055900400D490D05901A
:10042000401A0290402872DA18030121000B0905D6
:100430000843019004980092002805D00199524287
:100440000020884100920190029840210A1A0199E7
:10045000009800F0C2F905460C466B4607CB00F049
:10046000DDF9C0197141039A0E0D0023D7175640CC
:100470001A467A40164344D0049A002A2DD0029A94
:10048000012A039A15DC1205C01A9141012636058E
:10049000001C7141D20F059ED20700930192029673
:1004A0002A46234600F0DAF907B0F0BD3846314657
:1004B000FAE71605224A0F46B218C01AB7410121C1
:1004C0000905001C4F4100187F4111461818794159
:1004D000E20F10436D19644113E0E2076D08154304
:1004E0006408C2071443039A01261205C01A9141F9
:1004F0003605001C7141CE07400830434908C0183A
:1005000051412A46234600F09CF9CDE7FFE70498C5
:1005100001224000C117121A00238B410498314672
:10052000C417381AA141EEE730B40124E407634050
:1005300030BC55E730B40124E407614030BC4FE7DC
:100540000000E0FFF0B51FB488B00B9909980024B3
:1005500048400999C00F490049080991C0070B9903
:100560000090490049080B9109990898A64608434C
:100570001CD00B990A98084318D009980124400010
:10058000420D4800410D099824050003000B20434B
:1005900009900B980003000B20430B9050181C4946
:1005A0004018002201901446104605E00020014644
:1005B0000DB0F0BD032801DA034600E003239C469A
:1005C000C11A0AAE0AE05F0008ADED5B4F00F75BB1
:1005D0007D430027AA187C41491C5B1E6145F2DD62
:1005E000410004AB5A522104120C0A43240C401C53
:1005F0000828DFDB01980290009970460191009075
:10060000059B049A0799069800F028F9D0E70000A6
:100610000DFCFFFFF0B50C465C4085B0E40FE4072D
:1006200003944C0000266408590094464908024689
:100630000296224321D062460A431ED06200570D23
:100640004A000E032303550D012402462C492405BC
:10065000781B1B0B360B4018234326436146009042
:100660001C46501AB44103D30098401C009002E08D
:10067000921800985B41002803DA0020014605B07B
:10068000F0BD0020012109050746864611E06446B9
:100690001D46141BB54106D36546521BB341744633
:1006A00007430C43A646CD07400849082843921843
:1006B0005B4105460D43EAD11046184313D060460E
:1006C000194650407140084306D06046101AB341A5
:1006D00006D20122002306E000220123DB0702E00C
:1006E0000122D2435310009874460105381C614121
:1006F000029C039D0019694100F0A3F8BFE70000C8
:10070000FD0300004A0009030123090B1B051943DF
:100710000A4B10B5520D9A4202DA0020014610BD74
:10072000064B34339A4203DC9A1A00F066F810BD87
:10073000034BD21800F051F810BD0000FF03000079
:10074000CDFBFFFF10B5002904DB0124E407404284
:100750008C412146002B04DB1C460123DB0752425F
:10076000A341994200D1904210BD00001CB5094838
:1007700000900948019005460126009C05E0E368C9
:1007800007CC33430C3C98471034AC42F7D3FFF707
:10079000E5FC0000484E0008684E000870B50446AD
:1007A000002903D000202022012310E0002801D0DE
:1007B0000020C043C046C0460DE02546D5408D42CE
:1007C00005D30D469540641B1D46954040191546BE
:1007D000521E002DF1DC214670BD10B5202A04DB2D
:1007E0000146203A9140002010BD914020239C1AE0
:1007F0000346E3401943904010BD10B5202A04DBA6
:100800000846203AD040002110BD0B46D340D040CE
:100810002024A21A91400843194610BD10B5202A81
:1008200006DBCB170846203A1041C1170B4306E000
:100830000B461341D0402024A21A91400843194688
:1008400010BD10B5002B08DA0024401C614192183D
:100850005B411A4301D14008400010BDF0B51FB400
:1008600082B005460C0003D0084602F0DDFA02E033
:1008700002F0DAFA20300246009021462846FFF7BF
:10088000ACFF049B059A04460F46184311430843E6
:1008900014D0184610431BD0009840210A1A18465D
:1008A0000599FFF7AAFF05460E46009A0599049898
:1008B000FFF793FF084305D0012004E020463946A6
:1008C00007B0F0BD0020C11705430E432C4337434A
:1008D00000990E986305401A7905E40A00220C433A
:1008E000FD0A0A3002D500200146E9E7010510198A
:1008F00069410C9C0D9D00196941FFF7A2FFDFE7DC
:1009000080B582B0104801F053FD104801F050FD51
:100910003D4801F04DFD0920C00601210091002253
:10092000019240F2C07301F046F90099019AAF4874
:10093000032301F040F90099019A0548054B01F0A5
:100940003AF902B080BDC046130500001205000050
:1009500000080048C71D000080B588B0079040F22D
:1009600028100590802103910491A048019001F086
:10097000FDF80A20029000F063FF0198039901F04E
:10098000FDF8029800F05CFF3C2000F0FBF80398B3
:1009900000F012F9242000F0F5F800200690FFE79F
:1009A0000698059A04995143C90888420AD2FFE77C
:1009B00007980699405C00F0FFF8FFE70698401C96
:1009C0000690EDE700F092F808B080BD80B584B0E5
:1009D000E24801F0EDFC0920C006019001210391DD
:1009E00000220292132301F0E6F8029A0399DE48EE
:1009F000C02301F0E0F801980299039A202301F046
:100A0000DAF804B080BDC0461105000080B586B09C
:100A1000D54800908021029101F0A8F80A200190A9
:100A200000F00EFF0098029901F0A8F8019800F07C
:100A300007FF00F0DDF8122000F0A4F800F0D8F86D
:100A40000120059000F09EF85520049000F0B4F8C5
:100A5000059800F0B1F8059800F0AEF8112000F00C
:100A600091F8059800F0A8F8442000F08BF80020D9
:100A7000039000F0A1F80F2000F09EF8452000F050
:100A800081F8049800F098F8059800F095F803981C
:100A900000F092F8039800F08FF83C2000F072F814
:100AA000052000F089F8182000F06CF8029800F09A
:100AB00083F8212000F066F8039800F07DF8029892
:100AC00000F07AF84E2000F05DF8039800F074F81A
:100AD0004F2000F057F8049800F06EF8059800F0E9
:100AE0006BF800F085F806B080BDC04680B52220C6
:100AF00000F048F8FF2000F05FF8202000F042F8F6
:100B000000F076F880BD80B582B00190242000F01E
:100B100039F800200090FFE70098C00924280AD87F
:100B2000FFE701980099405C00F046F8FFE7009865
:100B3000401C0090F0E7262000F024F800200090F0
:100B4000FFE70098C00924280AD8FFE70198009918
:100B5000405C00F031F8FFE70098401C0090F0E79F
:100B600000F002F802B080BD80B5222000F00AF843
:100B7000F72000F021F8202000F004F800F038F809
:100B800080BD000080B584B003A9009108700920E1
:100B9000C00601901021029100F0E8FF7248402148
:100BA00000F0E4FF0098007800F0CFFC0198029973
:100BB00000F0E4FF04B080BD80B584B003A90091CB
:100BC00008700920C00601901021029100F0CEFFAC
:100BD0006548402100F0D2FF0098007800F0B5FC95
:100BE0000198029900F0CAFF04B080BD00040048DB
:100BF00080B5FFE70920C006202100F0C7FF08B933
:100C0000FFE700E0F6E780BDFFE7FEE710B596B02E
:100C10001590524801F0CCFB514801F0C9FB5148F6
:100C200001F0C6FB0920C0060190022109910022B3
:100C30000792C023029300F0BEFF0198029B079920
:100C400003220B9200F0FEFF0198029A0121089105
:100C500000F02CFF079A09990B9B4348039000F082
:100C6000AAFF039807990B9B1A4600F0EBFF039825
:100C700008990B9A00F01AFF3C480C9001F098FD7F
:100C800011A8049001F04AFE099801F0A9F804990E
:100C9000079A03460C980E930E9C354BB4FBF3F465
:100CA000641E0C80159CB3FBF4F35B1E13934A8007
:100CB0008A808A8101F0ECFD0FA8059001F06FFD9C
:100CC000059A0799089B0C980F93918001F036FCC8
:100CD000059A08990C9801F031FC059A09990C982D
:100CE00001F02CFC059A0B990C9801F027FC079950
:100CF0000C986022069201F0C9FC069A08990C989B
:100D000001F0C4FC069A09990C9801F0BFFC069A00
:100D10000B990C9801F0BAFC07990C98139A521C85
:100D200053080DAA0A921380128801F00FFD08994A
:100D30000A9A0C98128801F009FD09990A9A0C98F0
:100D4000128801F003FD0A9A0B990C98128801F0A1
:100D5000FDFC0C9801F092FD16B010BD11050000CD
:100D600012050000010700000004004800040040D4
:100D700040420F007047000084B003A9088001A919
:100D800000200880FFE701A800887049898A88420E
:100D900024DAFFE702A900200880FFE702A8008804
:100DA0006A49498A884213DAFFE702A8008801A944
:100DB0000B8866494A8A5A4380180090039809684C
:100DC000009A8854FFE70298401C02A90880E5E7D2
:100DD000FFE70198401C01A90880D4E704B07047E0
:100DE00070B58EB014460D4606461399129A0DA89A
:100DF00006800CAE35800BAD2C700A9309AB1A80BF
:100E000008AA1180008851498988884207DCFFE7D9
:100E10000CA800884D49C988884201DDFFE792E0AF
:100E20000BA80278203A0A98C18851430191818821
:100E3000C80802904907401C039009B90298039022
:100E400001990398484305900A980068059940184D
:100E5000049007A900200880FFE707A800880A99E6
:100E6000C98888426FDAFFE706A900200880FFE7FB
:100E700006A800880A998988884255DAFFE709A8F8
:100E80000088FF2819D1FFE70498007806A90A888E
:100E900007210A408021D14008420DD0FFE70D987C
:100EA000069940180C99079A891808AA128880B2E6
:100EB00089B200F081FAFFE725E00498007806A9DE
:100EC0000A8807210A408021D14008420DD0FFE75F
:100ED0000D98069940180C99079A891808AA128843
:100EE00080B289B200F068FA0CE00D9806994018BB
:100EF0000C99079A891809AA128880B289B200F061
:100F00005BFAFFE7FFE706A80088072108400728EB
:100F100004D1FFE70498401C0490FFE7FFE7069820
:100F2000401C06A90880A3E70A980079400720B171
:100F3000FFE70498401C0490FFE7FFE70798401C78
:100F400007A9088089E70EB070BDC046981200203E
:100F500070B58EB01C4615460E46139A129B0DA90D
:100F600008800CA806800B950A9409AC238008AB76
:100F70001A800B9A07920988069100880590FFE76E
:100F80000798007800B961E1079800787F2800DDB4
:100F9000A7E000200290FFE702980A99898888421A
:100FA00000DB95E0079800780A990968029BA62261
:100FB0005A43895C884200D085E00A980068029A0A
:100FC000A62151434018801C019000200390FFE7A8
:100FD00003980A994989884274DAFFE7002004904F
:100FE000FFE704980A99098988425DDAFFE709A8B2
:100FF0000088FF281CD1FFE7019800780499CA17E0
:10100000520F8A1807239A438A1A8021D140084236
:101010000DD0FFE70698049940180599039A89189E
:1010200008AA128880B289B200F0C6F9FFE728E06A
:10103000019800780499CA17520F8A1807239A4317
:101040008A1A8021D14008420DD0FFE70698049902
:1010500040180599039A891808AA128880B289B2A3
:1010600000F0AAF90CE00698049940180599039A33
:10107000891809AA128880B289B200F09DF9FFE7A9
:10108000FFE70498C117490F411807229143401AFE
:10109000072804D1FFE70198401C0190FFE7FFE714
:1010A0000498401C04909CE70A98007A400720B1FD
:1010B000FFE70198401C0190FFE7FFE70398401C01
:1010C000039085E704E0FFE70298401C029063E785
:1010D0000798401C07900A98C18806984018069007
:1010E000B3E000200290FFE702980A9989888842BD
:1010F00000DBA1E0079800780A990968029BA62204
:101100005A43895C884200D091E0079840780A9958
:101110000968029BA6225A4389184978884200D060
:1011200085E00A980068029AA62151434018801C65
:10113000009000200390FFE703980A9949898842AC
:1011400074DAFFE700200490FFE704980A99098900
:1011500088425DDAFFE709A80088FF281CD1FFE775
:10116000009800780499CA17520F8A1807239A43E7
:101170008A1A8021D14008420DD0FFE706980499D1
:1011800040180599039A891808AA128880B289B272
:1011900000F012F9FFE728E0009800780499CA17D8
:1011A000520F8A1807239A438A1A8021D140084295
:1011B0000DD0FFE70698049940180599039A8918FD
:1011C00008AA128880B289B200F0F6F80CE00698FE
:1011D000049940180599039A891809AA128880B2BF
:1011E00089B200F0E9F8FFE7FFE70498C117490F5B
:1011F000411807229143401A072804D1FFE70098BD
:10120000401C0090FFE7FFE70498401C04909CE717
:101210000A98007A400720B1FFE70098401C009030
:10122000FFE7FFE70398401C039085E704E0FFE732
:101230000298401C029057E70798801C07900A9874
:101240000189069840180690FFE799E60EB070BD38
:1012500070B58CB014460D4606461199109A0BA82D
:1012600006800AAE35800994089307AB1A8006AA57
:1012700011800B9905AA11800A9904AA118000888F
:10128000B0498988884207DCFFE70AA80088AD4991
:10129000C988884201DDFFE744E0FFE7099800784C
:1012A00000283FD0FFE705A80088089989884018E2
:1012B000A449898888420ADDFFE70B9805A90880C0
:1012C0000898C1880498401804A90880FFE704A87A
:1012D00000880899C98840189A49C988884207DD5A
:1012E000FFE70B9805A908800A9804A90880FFE782
:1012F00005A80390008804A90988099A1278089B18
:1013000007AC248806AD2D8801950094FFF768FD91
:1013100003990998401C09900898828805988018BC
:101320000880BBE70CB070BDB0B586B00C460A991A
:10133000059004A8048003AC228002AA138001AAAD
:101340001180804A00211160059911600499118172
:1013500003995181019991810078400728B9FFE7ED
:1013600004A80088C008009005E004A80088C00810
:10137000401C0090FFE700987249488203988882D9
:101380000298C8810020088202A8008828B1FFE7DF
:1013900002A80088B42806D1FFE70498694988802C
:1013A0000398C88005E00398664988800498C8803F
:1013B000FFE706B0B0BDC04689B0034608A8038069
:1013C00007AB198006A90A8000885E49898888428F
:1013D00007DCFFE707A800885A49C988884201DD71
:1013E000FFE7ADE05748C089019070B1FFE7019871
:1013F0005A2811D0FFE70198B42818D0FFE70198C8
:1014000040F20E11884220D02AE0089805A90880F1
:10141000079804A9088024E04A4801890798C04336
:10142000401805A90880089804A9088019E04548D3
:1014300002890899C943891805AA1180418907982A
:10144000C043401804A908800BE0079805A908804C
:101450003C4841890898C043401804A9088000E02E
:101460006EE03848008A009003282CD800998A0042
:1014700001A080188746C04600F006B800F005B805
:1014800000F00BB800F011B81EE02E480189059855
:10149000C043401805A9088016E02A4841890498ED
:1014A000C043401804A908800EE026480289059927
:1014B000C943891805AA118041890498C04340187E
:1014C00004A9088000E03BE005A800881D490989BF
:1014D000884207DCFFE704A800881A494989884246
:1014E00001DDFFE72CE005A80088C10804A80388F7
:1014F0001448428A5A438918039100680399405C52
:1015000002A9087006A8008868B9FFE7029805A933
:101510000A8807210A408021D14088430949096887
:10152000039A88540CE0029805A90A8807210A400A
:101530008021D140084303490968039A8854FFE792
:1015400009B0704798120020704780B584B003A995
:1015500008700920C006022100F008FB02A9002043
:101560000870FFE702A80078072827DCFFE703A838
:1015700000780006002806D5FFE70920C0060121F3
:1015800000F0FCFA05E00920C006012100F0EEFAA7
:10159000FFE70920C00600900221019100F0EEFA59
:1015A0000098019900F0E2FA0398400003A908703E
:1015B000FFE70298401C02A90870D3E704B080BD81
:1015C0007047000080B584B002900298401E000E63
:1015D00018B1FFE70120039011E00298401E09496D
:1015E000086000200190C043032100F09DF801989D
:1015F00005490860054A072111600390FFE7039839
:1016000004B080BD14E000E018E000E010E000E06D
:1016100080B500F009F980BD10B582B01D49086899
:10162000012210430860FFE71A480068800700287D
:1016300001D4FFE7F8E718490868032290430860DF
:10164000144B1868154C204018600868144B18405B
:1016500008600868134B18400860134908680F2396
:10166000984308601149086840F2031398430860E2
:1016700008689207904308600D49002001900860B7
:1016800000F044FF01990120C00600F053FB02B0B6
:1016900010BDC0460010024004100240FFFFF2FEE1
:1016A0000C00FF08FFFF007F2C10024030100240AA
:1016B0000810024080B50C480C4901F013FB38B10A
:1016C000FFE7094801F07EFAC0B201F061F9FFE7D7
:1016D0000548074901F006FB28B1FFE70248044925
:1016E00001F0E0FAFFE780BD004400400500050777
:1016F0000500030781B0014668460170002140568D
:1017000000280DD4FFE70021684641561F200A46F5
:1017100002400120904049098900024A8850FFE7B1
:1017200001B0704700E100E070B582B0024601A848
:101730000270009100214056002816D4FFE70024D3
:1017400001A908570322D3431840364A8058095745
:101750008C07E50EFF24AC40A043009CA401E4B23A
:10176000AC402043194088501AE001A908780F24A2
:10177000204008380322D3431840294A80580025C6
:1017800049578D07EE0EFF25B540A843009DAD01DA
:10179000EDB2B54028432140083919408850FFE791
:1017A00002B070BD70B582B0024601A8027000910F
:1017B00000214056002816D4FFE7002401A908574D
:1017C0000322D3431840174A805809578C07E50E67
:1017D000FF24AC40A043009CA401E4B2AC402043F1
:1017E000194088501AE001A908780F2420400838D1
:1017F0000322D34318400A4A8058002549578D07D1
:10180000EE0EFF25B540A843009DAD01EDB2B540F9
:1018100028432140083919408850FFE702B070BDC5
:101820001CED00E000E400E00448006828B1FFE798
:1018300002490868401E0860FFE77047B0120020A8
:1018400082B00190FFE70198411E019150B1FFE77E
:1018500005480090FFE70098411E009108B1FFE79E
:10186000F9E7F0E702B07047E02E000080B582B0E3
:101870000190019800F02AF81248007848B9FFE773
:10188000FFF7C4F85848FFF73EF90E4901200870E9
:1018900016E00D4800780A2809D3FFE7FFF7B6F8ED
:1018A0005148FFF730F908490020087007E04E481A
:1018B000FFF752F804490878401C0870FFE7FFE77B
:1018C00002B080BDB4120020B512002010B590B057
:1018D0000F90FF20069000904348802140F228128C
:1018E00040F20E13FFF720FD0698FFF745FA069821
:1018F0000024019400903D4A3D4B05930A2004903A
:101900002146FFF725FB0F98416A0AA8089000F0CE
:101910007BF80698089A01940090364B099337207B
:1019200003900421FFF794FC0498059B0699019409
:101930000091314A1521FFF70BFB08980F99496870
:1019400000F062F803980699089A099B01940091A7
:101950001921FFF77DFC0498059B069901940091DD
:10196000264A2A21FFF7F4FA08980F99C96900F06E
:101970004BF803980699089A099B019400912E212F
:10198000FFF766FC0498059B0699019400911C4A98
:101990003F21FFF7DDFA08980F99C96800F034F885
:1019A0000698089A099B019400905A2007904321B9
:1019B000FFF74EFC0498059B069901940091114A8B
:1019C0005421FFF7C5FA08980F99496900F01CF8EF
:1019D00006990798089A099B019400915821FFF7EE
:1019E00037FC10B010BDC04618000020384E00086B
:1019F000000000200C000020314E00083F4E00087F
:101A00001B4E0008264E000880B58AB00990089148
:101A100004A80021017008980190FEF749FC0146D6
:101A20003F200006BF2212060292039009B90298D5
:101A300003900198039900911949FEF7FCFB009966
:101A4000FEF7A0FBFEF742FC07900798002807D599
:101A5000FFE704A92D200870079840420790FFE790
:101A60000798642190FBF1F00690079890FBF1F243
:101A70005143401A059004A8007838B1FFE709984F
:101A8000069A059B084901F0BBF906E00998069AF9
:101A9000059B044901F0B4F9FFE70AB080BDC046D8
:101AA0000000C842114E0008104E000886B0059094
:101AB000049103920598006A01900598406A00908D
:101AC00002A900200880FFE702A8008807281DD887
:101AD000FFE702A801880398C840C00780B1FFE76C
:101AE00002A8018889000F228A400199914301913F
:101AF0000499008880008140019808430190FFE725
:101B0000FFE70298401C02A90880DDE702A908202F
:101B10000880FFE702A800880F281FD8FFE702A867
:101B200001880398C840C00790B1FFE702A8018868
:101B3000890020390F228A4000999143009104992D
:101B40000088800020388140009808430090FFE71B
:101B5000FFE70298401C02A90880DBE7019805997D
:101B6000086200980599486206B0704782B00190FB
:101B7000009100980199886202B0704782B001908C
:101B8000009100980199886102B0704783B001907C
:101B90000091019800690099084204D0FFE702A96A
:101BA0000120087003E002A900200870FFE702A8E6
:101BB000007803B0704787B00690059104920393B4
:101BC0000698006801900698C068009002A900205D
:101BD0000880FFE702A800880F282BD8FFE702A89B
:101BE00001880398C840C007F0B1FFE702A8018848
:101BF0004900032213468B40019999430191059BAB
:101C0000018849008B4001991943019101884900DD
:101C10008A400099914300910499008840008140D6
:101C2000009808430090FFE7FFE70298401C02A9D4
:101C30000880CFE701980699086000980699C86067
:101C400007B0704710B586B0059004A801700392E4
:101C500002930078012806D1FFE7029A05994868A7
:101C60001043486005E0029A05994868904348602F
:101C7000FFE705988068009001A900200880FFE731
:101C800001A800880F281DD8FFE701A80188029845
:101C9000C840C00780B1FFE701A8018849000322BE
:101CA0008A40009991430091039900884000814047
:101CB000009808430090FFE7FFE70198401C01A946
:101CC0000880DDE700980599886006B010BD80B5F2
:101CD0008CB000200B9000F01DFCFEF711FE00F010
:101CE00011FF7B20009040F2E830FEF78FFFFEF7F7
:101CF0006DFEFFE701A800F023FE20B1FFE701A879
:101D0000FFF7B4FDFFE7F5E780B584B00A4601466A
:101D100003A80190017002A90A7000220092805667
:101D20000978FFF73FFD009901984056FFF7E2FC64
:101D300004B080BD82B00190009101980099044ADE
:101D40001140084303490860BFF34F8F02B070474A
:101D500080FFFF1F08ED00E0B0B58CB00B900B9832
:101D6000C07801A9009108700B98001D00F056FB87
:101D7000009902900B98007A08720B98093000F0D5
:101D80004DFB009904900B98407B08740B980E3023
:101D900000F044FB009906900B98807C08760B9825
:101DA000133000F03BFB009908900B98C07D202277
:101DB00088540B98183000F031FB00990A900648BF
:101DC0001CC91CC01CC91CC03CC93CC00349012023
:101DD00008700CB0B0BDC046D8120020001300201F
:101DE000A0B01FA90870002002901E901D901C90AA
:101DF0001B901A90199018901790169015901490A7
:101E000013901290119010900F900E90F9490D912F
:101E1000F9490C910B900A9009910890079106904E
:101E200005910490F54800680C21084080081E9038
:101E30001E98039040B1FFE70398012807D0FFE701
:101E40000398022806D065E0ED481A9065E0ED4859
:101E50001A9062E0E94801683F2292041140890C1F
:101E6000139100680121C9060840C00E1290129813
:101E7000800113994018139013980F2804D3FFE79B
:101E80001398401C13900BE013980F2803D1FFE721
:101E90001020139003E01398801C1390FFE7FFE7D6
:101EA000D6480068032109040840000C11901198DD
:101EB00070B9FFE7D44800680F210840401C10901B
:101EC0001099CF48B0FBF1F1139848431A9020E0E5
:101ED000119801280ED1FFE7CB4800680F21084078
:101EE000401C10901099C748B0FBF1F1139848437B
:101EF0001A900DE0C44800680F210840401C109063
:101F00001099C248B0FBF1F1139848431A90FFE7CB
:101F1000FFE702E0BA481A90FFE7B8480168C9B283
:101F200009090F910F9A0AA9895C0E911A990E9AC4
:101F3000D1401991016840F200721140090A0F91D5
:101F40000F9A08A9895C0E9119990E9AD14018919F
:101F5000006843F600010840C00A0F900F9906A8D8
:101F6000405C0E9019980E99C84017901FA80078F1
:101F700001900B2800D90FE201998A0001A0801876
:101F80008746C04600F016B800F017B800F018B841
:101F900000F019B800F01AB800F0EBB800F0FCB986
:101FA00000F0FAB900F0F8B900F06FB900F01CB910
:101FB00000F0AEB91A981B90EFE119981B90ECE174
:101FC00018981B90E9E117981B90E6E1F748006824
:101FD00040F200110840884203D0FFE7F148169014
:101FE000C4E0EF48006880B2800B1D90EF480068A5
:101FF000800F1C901D980090032800D9B4E0009930
:102000008A0001A08018874600F006B800F02EB8BC
:1020100000F056B800F080B81C9820B9FFE7179878
:102020004008169021E01C98012806D1FFE7179878
:102030000A21B0FBF1F0169016E01C98022806D198
:10204000FFE719980321B0FBF1F016900BE01C9804
:10205000032806D1FFE719980B21B0FBF1F0169089
:1020600000E0FFE7FFE7FFE7FFE77EE01C9820B90D
:10207000FFE717988008169021E01C98012806D1E8
:10208000FFE717980C21B0FBF1F0169016E01C98B2
:10209000022806D1FFE719980521B0FBF1F0169050
:1020A0000BE01C98032806D1FFE719980D21B0FB1F
:1020B000F1F0169000E0FFE7FFE7FFE7FFE754E0ED
:1020C0001C9830B9FFE717980621B0FBF1F0169085
:1020D00021E01C98012806D1FFE717980E21B0FBDC
:1020E000F1F0169016E01C98022806D1FFE7199827
:1020F0000721B0FBF1F016900BE01C98032806D1E5
:10210000FFE719980F21B0FBF1F0169000E0FFE710
:10211000FFE7FFE7FFE728E01C9820B9FFE71798E3
:10212000C00816901FE01C98012804D1FFE71798FB
:102130000009169016E01C98022806D1FFE71998AE
:102140000921B0FBF1F016900BE01C98032806D192
:10215000FFE719981121B0FBF1F0169000E0FFE7BE
:10216000FFE7FFE7FFE700E0FFE7FFE716981B90B8
:1021700013E18E480068800718B9FFE7179815909B
:102180002FE08A48006803210840012803D1FFE7B7
:102190001A98159024E08548006803210840022819
:1021A00004D1FFE748F20000159018E07F4800686E
:1021B00003210840032810D1FFE77C48006807216D
:1021C00089040840800C0F900F9904A8405C0E9081
:1021D0000E997548C840159000E0FFE7FFE7FFE75C
:1021E000FFE715981B90D8E0704800688003800FC7
:1021F00088B90DE006070809010203040410024033
:102200000024F40000127A002C100240006CDC0262
:102210001898159036E065480068032109040840C5
:1022200001210904884203D1FFE71A98159028E09C
:102230005E480068032109040840012149048842DE
:1022400004D1FFE748F20000159019E057480068F4
:10225000032109040840884210D1FFE75348006871
:10226000072189040840800C0F900F9904A8405C56
:102270000E900E994C48C840159000E0FFE7FFE72C
:10228000FFE7FFE715981B9087E048480068C00407
:10229000800F18B9FFE71898159036E0434800689A
:1022A00041F60001084040F60001884203D1FFE7F3
:1022B0001A98159028E03D48006841F60001084052
:1022C00041F20001884204D1FFE748F20000159076
:1022D00019E03648006841F600010840884210D1F4
:1022E000FFE732480068072189040840800C0F90FE
:1022F0000F9904A8405C0E900E992B48C840159089
:1023000000E0FFE7FFE7FFE7FFE715981B9044E0D9
:10231000264800684005800F18B9FFE71898149008
:1023200037E02248006840F20061084040F2002196
:10233000884204D1FFE747F60050149028E01B487C
:10234000006840F20061084040F20041884204D138
:10235000FFE748F20000149019E01448006840F2CA
:1023600000610840884210D1FFE71048006807214B
:1023700089040840800C0F900F9904A8405C0E90CF
:102380000E990948C840159000E0FFE7FFE7FFE716
:10239000FFE714981B9000E0FFE71B9820B0704700
:1023A00004100240006CDC020024F40030100240F3
:1023B00081B001466846018000881F220146114015
:1023C00001238B4081094E4A88581843885001B038
:1023D0007047C04681B001466846018000881F22D0
:1023E0000146114001238B408109454A8858984392
:1023F000885001B07047C04681B0014668460180F0
:1024000000881F220146114001238B4081093C4A6C
:1024100088581843885001B07047C04683B0029076
:102420000298C178684601700299897841700299D2
:102430004978817002990978C1700278417809025F
:10244000891882781204C07800068018401801901C
:10245000019803B07047000085B0002004900390FD
:10246000274A116801231B04194311600290FFE7FA
:102470000298400B28B9FFE7FFE70298401C029042
:10248000F6E7FFE70498401C04901D48006801210E
:10249000490408400390FFE703990020019039B9EF
:1024A000FFE704981749401A411E88410190FFE751
:1024B0000198C0070028E5D1FFE7114800688003B4
:1024C000002802D4FFE7FFE7FEE70F490091086804
:1024D000086008680860086808600868032290437C
:1024E00008600868012210430860FFE7064800689A
:1024F0000C210840042801D0FFE7F7E705B070473A
:1025000000100240FFFF00000410024080B5FFF7FA
:10251000A3FF80BD80B50848006840F2E831B0FBF9
:10252000F1F0FFF74FF810B1FFE7FFE7FEE70021FA
:10253000C843FFF7F9F880BD1400002085B004906F
:1025400003A80180029200880090032800D999E036
:1025500000998A0001A080188746C04600F006B89E
:1025600000F024B800F045B800F067B80499086A94
:10257000012290430862049988690322904388618C
:10258000029802680499086A104308620498006A75
:102590000190019802218843019002988188019856
:1025A000084301900198049908626CE00499086A54
:1025B0001022904308620499886940F200329043E7
:1025C00088610298006802010499086A1043086251
:1025D0000498006A01900198202188430190029894
:1025E00080880101019808430190019804990862CC
:1025F00049E00499086A40F2001290430862049985
:10260000C86903229043C8610298006802020499D5
:10261000086A104308620498006A0190019840F229
:1026200000218843019002988088010201980843A4
:10263000019001980499086225E00499086A41F222
:102640000002904308620499C86940F20032904346
:10265000C8610298006802030499086A104308627E
:102660000498006A0190019842F2000188430190A9
:102670000298808801030198084301900198049909
:10268000086200E0FFE705B07047000085B00490E5
:1026900003A8018002A90A8000880090032851D86D
:1026A00000998A0001A080188746C04600F006B84D
:1026B00000F014B800F024B800F032B80498806933
:1026C0000190019870218843019002A80188019827
:1026D0000843019001980499886134E00498806966
:1026E0000190019847F200018843019002A80088F8
:1026F000010201980843019001980499886122E041
:102700000498C0690190019870218843019002A843
:10271000018801980843019001980499C86112E06A
:102720000498C0690190019847F200018843019024
:1027300002A80088010201980843019001980499B9
:10274000C86100E0FFE705B07047000084B0039067
:1027500002A8018001920088009003281CD80099EB
:102760008A0001A08018874600F006B800F008B87B
:1027700000F00AB800F00CB80198039948630CE027
:1027800001980399886308E001980399C86304E0FD
:1027900001980399086400E0FFE704B0704781B036
:1027A00000900099002008600099888001B070476F
:1027B00080B588B007900798069001218907884264
:1027C00019D0FFE70698534988421DD0FFE70698C5
:1027D0005149884220D0FFE706982149884223D0FA
:1027E000FFE706981F4988422ED0FFE706981E494A
:1027F000884221D031E040F200400590FFF7FCFD17
:102800000598FFF7E7FD29E01B480490FFF7F4FD6A
:102810000498FFF7DFFD21E016480390FFF7ECFD79
:102820000398FFF7D7FD19E011480290FFF7E4FD88
:102830000298FFF7CFFD11E00C480190FFF7DCFD97
:102840000198FFF7C7FD09E040F208400090FFF74C
:10285000D3FD0098FFF7BEFD00E0FFE708B080BDA4
:102860000014004000180040004C01400B03000021
:1028700005040000040400000104000081B0009081
:102880000099086801221043086001B070470000F9
:1028900082B00190009100980088019988620198A7
:1028A00001218907884205D0FFE70198194988422C
:1028B00012D1FFE7019908687022904308600098E0
:1028C000428801990868104308600098828801993D
:1028D000086810430860FFE7009880680199C862A3
:1028E00001980D4988420DD0FFE70199086840F230
:1028F000003290430860009882890199086810436B
:102900000860FFE70199486901221043486102B05D
:102910007047C046000400400010004081B00090A5
:102920000099002008800099488000998880009ACA
:10293000024991600099888101B07047FFFF000053
:10294000B0B582B00090009820B1FFE70E48007843
:1029500020B9FFE701A90020087010E072B60098C6
:102960000A491CC91CC01CC91CC03CC93CC0064942
:102970000020087062B601A901200870FFE701A8D5
:10298000007802B0B0BDC04600130020D81200206D
:1029900080B582B001A908702248007838B9FFE7F5
:1029A00001A80078012801D0FFE739E026E01D48A2
:1029B0000078012811D1FFE701A8007803280BD087
:1029C000FFE701A80078401E4142484115490870C0
:1029D00001981549087023E00FE01248007802289A
:1029E0000AD1FFE701A80078052804D0FFE70D49C8
:1029F0000020087014E0FFE7FFE7FFE701990948AE
:102A000003785A1C0270084AD15400781E2807D354
:102A1000FFE70548FFF7A0F9024900200870FFE72B
:102A200002B080BDD4120020B612002080B588B05C
:102A3000079006910020059004900390029007985B
:102A400001908349884214D0FFE701988149884268
:102A500014D0FFE701988049884214D0FFE701981D
:102A60007E49884214D1FFE70520FFF7B9F90590A8
:102A70000FE00A20FFF7B4F905900AE00220FFF703
:102A8000AFF9059005E00220FFF7AAF9059000E0F4
:102A9000FFE7079800680004002818D5FFE70598AD
:102AA000400006994A088018B0FBF1F002900298A5
:102AB00013490840049002980007400F039004A8AF
:102AC000008803A9098808430799C86016E005989B
:102AD00006994A088018B0FBF1F002900298084964
:102AE0000840049002980F210840039004A8008831
:102AF00003A9098808430799C860FFE708B080BDAB
:102B0000F0FF000080B588B02C48FFF751FC2C483E
:102B1000FFF74EFC0920C006029007210091042215
:102B20000492FEF7C3FF0099029808220592FEF76F
:102B3000BDFF0298049B0221019101220392FFF73D
:102B40003AF80298039A049B00210791FFF77AF85C
:102B500001990298039A059BFFF72DF80298039AB2
:102B6000059B0799FFF76EF83948069000F034F896
:102B70000698079900F02FF90698079900F007F9D1
:102B80000698079900F0DFF80698E1214902FFF75F
:102B90004DFF0499069800F0EBF80599069800F0AF
:102BA0000BF9069800F064F80698052100F069F822
:102BB00007991C20FFF7A8F808B080BD1105000098
:102BC0001107000081B000900098406A0149084058
:102BD00001B07047FF01000080B586B005900598F0
:102BE00004901B49884217D0FFE70498194988428E
:102BF0001AD0FFE70498184988421DD0FFE70498CF
:102C00001649884220D1FFE718480390FFF7F4FBEC
:102C10000398FFF7DFFB18E013480290FFF7ECFB87
:102C20000298FFF7D7FB10E00E480190FFF7E4FB96
:102C30000198FFF7CFFB08E009480090FFF7DCFBA5
:102C40000098FFF7C7FB00E0FFE706B080BDC04675
:102C500000440040004C004000500040003801405B
:102C60001404000013040000110400000E0300000F
:102C700081B000900099086801221043086001B0FB
:102C8000704782B001906846018000881F2201468B
:102C9000114001238B4001998209885818438850BC
:102CA00002B0704782B00190009100980C498842B0
:102CB00008D1FFE70199D022885848F200039843D1
:102CC00088500BE000981F2109040840000C0122E5
:102CD00082400199086A10430862FFE702B070471A
:102CE00009340F3410B585B0039002910020019093
:102CF0000090039802A9098889094058029C1F2363
:102D00001C4001210A46A240104001900398029AFB
:102D1000920D8058029A1B041A40120C91400840F0
:102D20000090009838B1FFE7019820B1FFE704A9AF
:102D30000120087003E004A900200870FFE704A840
:102D4000007805B010BD82B001900091019908682B
:102D50000122904308600199086840F200629043A4
:102D60000860009A019908681043086002B0704733
:102D700082B0019000910199086804229043086094
:102D8000009A019908681043086002B0704782B049
:102D9000019000910199086801229043086001990F
:102DA000486843F2000290434860009A01994868DD
:102DB0001043486002B0704782B0019000910199C1
:102DC0000868082290430860009A01990868104337
:102DD000086002B0704782B00190009101990868C4
:102DE0000122904308600199086841F20002904373
:102DF0000860009A019908681043086002B07047A3
:102E00000FB410B504A9074B02AA039800F0ECF820
:102E1000044602A9002000F083FC204610BC08BC38
:102E200004B01847213700082021020C01D01021DE
:102E30001046020A01D010460839020901D0104696
:102E4000091F820801D01046891E420801D0881E41
:102E50007047081A704702E008C8121F08C1002A0C
:102E6000FAD170477047002001E001C1121F002A0B
:102E7000FBD17047F0B51FB486B00998089A030DCE
:102E80000021024314D05148514A181850430514E8
:102E90001198012810981AD0281A401C00264D4F6E
:102EA0004D49009601910490002812DA444211E045
:102EB0001198012449A3012801D11098C143069813
:102EC000119A84600360C26041600BB0F0BD404263
:102ED000E4E70446210500203F4A001C51410391CC
:102EE000029012E0E00707D032463B460199009875
:102EF000FDF728FB0191009032463B4610461946EB
:102F0000FDF720FB06460F466410002CEAD104981A
:102F1000039B0028029A0999089806DAFDF712FB2C
:102F2000019B009AFDF70EFB05E0FDF773FB019B8B
:102F3000009AFDF76FFB04460E460022284BFDF772
:102F400001FC03D80020C043014607E00022254BC6
:102F500020463146FDF744FAFDF7D4FB102409E082
:102F6000002C0ADB0A220023FDF7C9F9079B303247
:102F70001A55641E02460A43F2D11122641C079BB3
:102F8000121B1C19119B012B03D0012308430ED1E6
:102F90000AE0084304D0112010900020119077E738
:102FA0001098151A6D1E0BE01098824202DD002366
:102FB0006D1C03E0824201DA00236D1E002BEED06F
:102FC000069811998260C16030C07EE701FCFFFF66
:102FD000104D0000000014400000F03F30000000E1
:102FE0000000F0430000E03FFFB597B00646002523
:102FF00018E2252877D100242746FD49049400E0F3
:103000000443761C32780120203A90400842F7D1E0
:1030100030782A280ED0022230780146303909292A
:1030200016D804990A235943303940181443761CA2
:103030000490F1E7189802C804911890002904DA66
:103040000120400304434842049002200443761CBC
:1030500030782E2814D1042004437078761C2A2856
:1030600009D11898761C80C8189009E00A214F43AE
:10307000303FC719761C3078014630390929F5D917
:1030800030786C2810D006DC4C281AD068280ED076
:103090006A2817D104E0742813D07A2812D110E0DE
:1030A0000120400504430CE00121090501E0032152
:1030B00009050C437178814203D1012000052418D1
:1030C000761C761C3078119066280BD013DC5828BB
:1030D0007DD009DC00287BD04528F6D04628F4D0E6
:1030E00047281AD1A5E118E0632835D0642870D0AC
:1030F000652812D19DE170286CD008DC6728F1D0DA
:1031000069287BD06E280DD06F2806D1BAE07328CD
:103110002ED0752871D0782859D01A9A19999047CD
:103120006D1C7EE16002400F022809D003280DD0FB
:103130000428189801680DD00D60001D189070E1EA
:103140001898EA1701680D604A60F6E71898016858
:103150000D80F2E70D70F0E718986A460178117259
:10316000001D18900020507202A80090012005E078
:10317000189802C8189000200091C04361070DD52F
:10318000002101E00199491C0191B94212DA814202
:10319000F8DB009A515C0029F4D10BE0002101E03A
:1031A0000199491C01918142FADB019A0099895CDD
:1031B0000029F5D1019904981A9B471A21463846EF
:1031C000199A00F097FA0199401945180BE04FE061
:1031D0002CE113E04EE0009800990078491C009122
:1031E0001A9A199990470198401E0190401CF2D1FB
:1031F000214638461A9B199A10E137E00A2000212F
:10320000009001916002410F022907D0189A01CA6B
:103210001892C2179446032908D00AE01898C01DD6
:10322000C108C90005C91891944607E000B2C21749
:103230009446042902D140B2C1178C46002261464F
:10324000944506DA0A460021404291418C462D21E0
:1032500002E0210504D52B216A461173012103E008
:10326000E10701D02021F7E7029155E00A200AE0AA
:10327000102008E010200090002104200443019158
:10328000082703E008200021019100906002410F0F
:10329000022907D0189A01CA1892002294460329DD
:1032A00008D008E01898C01DC108C90005C91891C8
:1032B000944603E080B2042900D1C0B200210291FB
:1032C000210729D51199702906D0009A1021019B58
:1032D0004A401A4305D00EE040216A46117301218D
:1032E00008E06146014306D030216A461173119906
:1032F000517302210291009A0821019B4A401A430E
:103300000AD16146014301D1610705D530216A46E2
:10331000117301217F1E02911199582904D035A102
:103320000E910DA90D910DE037A1F9E76146019BC2
:10333000009AFCF7E4FF0E9B8C469B5C0D9A521E94
:103340000D92137061460143F0D10D9805A9081A3A
:1033500020300190600703D501200004844300E081
:1033600001270198874201DD381A00E00020019909
:1033700000904118029809180498401A0490E0033C
:1033800006D421461A9B199A049800F0B3F94519FE
:10339000002706E003A81A9AC05D199990476D1C92
:1033A0007F1C02988742F5DBE0030CD521461A9B6F
:1033B000199A049800F09EF9451904E01A9A3020F1
:1033C000199990476D1C0099481E00900029F5DC62
:1033D00008E00D980D990078491C0D911A9A1999D9
:1033E00090476D1C0199481E01900029F1DC63E1B2
:1033F00009280100303132333435363738396162CB
:10340000636465660000000030313233343536378E
:1034100038394142434445460000000000F05AF963
:103420004519761C3078002800D0E2E528461BB00C
:10343000F0BD600700D406271898C01DC108C90058
:1034400048680A680831C30FDB071891190001D0DA
:103450009CA108E0210501D59BA104E0E10701D072
:103460009AA100E09AA1430011985B081091652889
:103470000CD006DC452809D046281DD0472841D16C
:1034800041E0662818D067283CD13CE00021112F8C
:1034900001DB112000E0781C0191009008A911A81F
:1034A000FFF7E8FC139905910021119A15927F1CF2
:1034B00012980197009150E00120C007039001206D
:1034C000019008A9009711A8FFF7D4FC139A14994A
:1034D00005920022119B009212981593059A019271
:1034E000002901D0104602E0791C40180190381ADA
:1034F00001D5019804E04042401E0090781C0190E4
:10350000C01B029043E0012F00DA01270021112F98
:1035100001DD112000E038460191009008A911A8B2
:10352000FFF7A8FC13990591119A002112981592A2
:103530000091019721070CD40599B94201DB01994B
:1035400000E00191012904DD159A491E515C3029E2
:1035500006D0B84201DA011D05DA0121029115E019
:103560000199491EEDE7002805DC009941180091FA
:103570000199091A03E0019A411C914200DD019171
:103580000099401A401C02900120C00703902007B8
:1035900006D402990198814202DB0020C0430290C8
:1035A00000206946C87707AF012103980337C90790
:1035B000884224D0022011902B20129003980028DA
:1035C0000CDA404203902D20129007E00A21039864
:1035D000FDF7E4F830317F1E039039701199481ED1
:1035E00011900029F2DC03980028EFD1791E12987F
:1035F00008703078202108404530BF1E387006A87A
:10360000C01BC01D039010980078002800D0012036
:10361000019941180298C0170918039809180498CD
:10362000401A401E0490E00306D421461A9B199AC2
:10363000049800F05FF8451910980078002803D02E
:103640001A9A199990476D1CE00324D521461A9BBC
:10365000199A049800F04EF845191CE000980028CB
:1036600007DB00990598884203DD1598405C19999D
:1036700001E0199930201A9A904700986D1C401C5F
:1036800000900298401E0290002804D11A9A2E2021
:10369000199990476D1C0199481E01900029DDDCA5
:1036A00005E038781A9A7F1C199990476D1C039988
:1036B000481E03900029F4DC21461A9B199A0498AD
:1036C000ACE600002D0000002B00000020000000F0
:1036D00000000000F8B5044600251E461746880481
:1036E00004D405E039462020B0476D1C641EF9D58E
:1036F0002846F8BDFFB50446002581B01E46C80324
:1037000001D5302700E02027880404D505E038469D
:103710000399B0476D1C641EF9D5284605B0F0BD6D
:103720000A68531C0B6010707047C4E3000000006F
:10373000000000001DC01D803BFF3B073F777E76E9
:10374000F870FBFEFBFE3F773F773E7338703870B2
:103750003BE000000000000000000000000000004E
:103760000000000000000000000000000000000059
:103770000000000000000000000000000000000049
:103780000000000000000000000000000000000039
:103790000000000000000000000000000000000029
:1037A0000000000000000000000000000000000019
:1037B0000000000000000000000000000000000009
:1037C00000000000000000000000000000000000F9
:1037D000BAC30000000000000000300073FF700F4B
:1037E000FE1E7E3C6E38EE30EFFFFC307C30383011
:1037F0003E307E30E030C1F00000000000000000EC
:1038000000000000000000000000000000000000B8
:1038100000000000000000000000000000000000A8
:103820000000000000000000000000000000000098
:103830000000000000000000000000000000000088
:103840000000000000000000000000000000000078
:103850000000000000000000000000000000000068
:103860000000000000000000000000000000000058
:10387000000000000000BCD70000000000007FFC3A
:10388000638C638C638C7FFC638C638C638C7FFCA8
:10389000638C03800380038003800000000000002D
:1038A0000000000000000000000000000000000018
:1038B0000000000000000000000000000000000008
:1038C00000000000000000000000000000000000F8
:1038D00000000000000000000000000000000000E8
:1038E00000000000000000000000000000000000D8
:1038F00000000000000000000000000000000000C8
:1039000000000000000000000000000000000000B7
:10391000000000000000000000000000CDE90000F1
:103920000000000030E037FC3E04FE04780073FC29
:10393000700037FC31B039B06DB66BB6CF36441C71
:103940000000000000000000000000000000000077
:103950000000000000000000000000000000000067
:103960000000000000000000000000000000000057
:103970000000000000000000000000000000000047
:103980000000000000000000000000000000000037
:103990000000000000000000000000000000000027
:1039A0000000000000000000000000000000000017
:1039B0000000000000000000000000000000000007
:1039C0000000D1F500000000000030003FFC600066
:1039D0005FF840007FF819987FF806187FD8061A1C
:1039E000FFFE061C060C00000000000000000000A6
:1039F00000000000000000000000000000000000C7
:103A000000000000000000000000000000000000B6
:103A100000000000000000000000000000000000A6
:103A20000000000000000000000000000000000096
:103A30000000000000000000000000000000000086
:103A40000000000000000000000000000000000076
:103A50000000000000000000000000000000000066
:103A60000000000000000000C6F800000000000098
:103A700018003FFC20007FF8400000003FF00030BD
:103A80000030003000360014001C00000000000070
:103A90000000000000000000000000000000000026
:103AA0000000000000000000000000000000000016
:103AB0000000000000000000000000000000000006
:103AC00000000000000000000000000000000000F6
:103AD00000000000000000000000000000000000E6
:103AE00000000000000000000000000000000000D6
:103AF00000000000000000000000000000000000C6
:103B00000000000000000000000000000000D2BB28
:103B100000000000000000000000000000000000A5
:103B20000000FFFE00000000000000000000000098
:103B30000000000000000000000000000000000085
:103B40000000000000000000000000000000000075
:103B50000000000000000000000000000000000065
:103B60000000000000000000000000000000000055
:103B70000000000000000000000000000000000045
:103B80000000000000000000000000000000000035
:103B90000000000000000000000000000000000025
:103BA0000000000000000000000000000000000015
:103BB00000000000BBAF00000000000009C019C0F9
:103BC00019C831DE31F871F0F1E0F3C03FC037C4FD
:103BD00031CE31CC30FC00000000000000000000BD
:103BE00000000000000000000000000000000000D5
:103BF00000000000000000000000000000000000C5
:103C000000000000000000000000000000000000B4
:103C100000000000000000000000000000000000A4
:103C20000000000000000000000000000000000094
:103C30000000000000000000000000000000000084
:103C40000000000000000000000000000000000074
:103C500000000000000000000000CCBC00000000DC
:103C600000000060FA6423FC610061007FFEDB203D
:103C7000DB20DBEC5EF85E507CDC7B8E41040000D8
:103C80000000000000000000000000000000000034
:103C90000000000000000000000000000000000024
:103CA0000000000000000000000000000000000014
:103CB0000000000000000000000000000000000004
:103CC00000000000000000000000000000000000F4
:103CD00000000000000000000000000000000000E4
:103CE00000000000000000000000000000000000D4
:103CF00000000000000000000000000000000000C4
:103D0000CEC200000000000047F8660837F8060839
:103D1000460867F820000FFC2DAC6DAC6DAC6DACA7
:103D20005FFE000000000000000000000000000036
:103D30000000000000000000000000000000000083
:103D40000000000000000000000000000000000073
:103D50000000000000000000000000000000000063
:103D60000000000000000000000000000000000053
:103D70000000000000000000000000000000000043
:103D80000000000000000000000000000000000033
:103D90000000000000000000000000000000000023
:103DA000000000000000B6C8000000000000018014
:103DB0007FFE600066107FFC661067F060006FF8A1
:103DC000663863E0C7F05C1C0000000000000000E3
:103DD00000000000000000000000000000000000E3
:103DE00000000000000000000000000000000000D3
:103DF00000000000000000000000000000000000C3
:103E000000000000000000000000000000000000B2
:103E100000000000000000000000000000000000A2
:103E20000000000000000000000000000000000092
:103E30000000000000000000000000000000000082
:103E4000000000000000000000000000B6FE0000BE
:103E50000000000000003FF800000000000000002B
:103E600000000000000000000000FFFE0000000055
:103E70000000000000000000000000000000000042
:103E80000000000000000000000000000000000032
:103E90000000000000000000000000000000000022
:103EA0000000000000000000000000000000000012
:103EB0000000000000000000000000000000000002
:103EC00000000000000000000000000000000000F2
:103ED00000000000000000000000000000000000E2
:103EE00000000000000000000000000000000000D2
:103EF0000000A3BA00000000000000000000000065
:103F00000000380038000000000000000000380009
:103F10003800000000000000000000000000000069
:103F20000000000000000000000000000000000091
:103F30000000000000000000000000000000000081
:103F40000000000000000000000000000000000071
:103F50000000000000000000000000000000000061
:103F60000000000000000000000000000000000051
:103F70000000000000000000000000000000000041
:103F80000000000000000000000000000000000031
:103F900000000000000000006100000000000000C0
:103FA000000000000000000000003E0067000780E5
:103FB0000F807F80E380E780E7807F800000000043
:103FC00000000000000000000000000000000000F1
:103FD00000000000000000000000000000000000E1
:103FE00000000000000000000000000000000000D1
:103FF00000000000000000000000000000000000C1
:1040000000000000000000000000000000000000B0
:1040100000000000000000000000000000000000A0
:104020000000000000000000000000000000000090
:10403000000000000000000000000000000062001E
:1040400000000000000000007000700070007000B0
:104050007F007B8071C071C071C071C071C07B80F6
:104060007F000000000000000000000000000000D1
:104070000000000000000000000000000000000040
:104080000000000000000000000000000000000030
:104090000000000000000000000000000000000020
:1040A0000000000000000000000000000000000010
:1040B0000000000000000000000000000000000000
:1040C00000000000000000000000000000000000F0
:1040D00000000000000000000000000000000000E0
:1040E000000000006300000000000000000000006D
:1040F0000000000000003F007300F000E000E0005E
:10410000E000F00073003F0000000000000000002D
:10411000000000000000000000000000000000009F
:10412000000000000000000000000000000000008F
:10413000000000000000000000000000000000007F
:10414000000000000000000000000000000000006F
:10415000000000000000000000000000000000005F
:10416000000000000000000000000000000000004F
:10417000000000000000000000000000000000003F
:1041800000000000000000000000410000000000EE
:104190000000000000000E001F001F001F003B80F9
:1041A0003B8071807FC071C0E0E0E0E0E0E00000B3
:1041B00000000000000000000000000000000000FF
:1041C00000000000000000000000000000000000EF
:1041D00000000000000000000000000000000000DF
:1041E00000000000000000000000000000000000CF
:1041F00000000000000000000000000000000000BF
:1042000000000000000000000000000000000000AE
:10421000000000000000000000000000000000009E
:10422000000000000000000000000000000000008E
:10423000000000000000000000000000000000007E
:10424000000000000000000000000000000000006E
:1042500000000C000C000C000C000C000C000C000A
:104260000C0000000C000000000000000000000036
:10427000000000001DC01DC00880088008800000EC
:10428000000000000000000000000000000000002E
:1042900000000D800D800D800D803FC01B003FC0D1
:1042A0001B001B001B001B000000000000000000A2
:1042B00004001F803180318038001E000F00038011
:1042C000318031803F000400040000000000000045
:1042D000000018002400240018C007801E00318050
:1042E00002400240018000000000000000000000C9
:1042F000000000000F001800180018000C001D80BE
:10430000370033001D8000000000000000000000A6
:104310000000000007000700020002000200000089
:10432000000000000000000000000000000000008D
:1043300000000300030006000E000C000C000C003F
:104340000C000E0006000300030000000000000047
:104350000000180018000C00060006000600060009
:10436000060006000C001C00180000000000000001
:104370000000060006003FC03FC00F001F801980EC
:10438000000000000000000000000000000000002D
:104390000000000000000400040004003F8004004E
:1043A0000400040000000000000000000000000005
:1043B00000000000000000000000000000000000FD
:1043C0000000060004000C000800080000000000C7
:1043D0000000000000000000000000003F8000001E
:1043E00000000000000000000000000000000000CD
:1043F00000000000000000000000000000000000BD
:1044000000000C000C000000000000000000000094
:1044100000C000C0018001800300030006000C0002
:104420000C001800180030003000000000000000F0
:1044300000000E001B0031803180318031803180DE
:1044400031801B000E000000000000000000000092
:10445000000006003E0006000600060006000600FA
:10446000060006003FC00000000000000000000041
:1044700000000F00198031803180030006000C001D
:10448000180030003F800000000000000000000025
:1044900000003F006180018003001F000380018055
:1044A000018061803F00000000000000000000006B
:1044B0000000070007000F000B001B001300330073
:1044C0003F8003000F80000000000000000000009B
:1044D00000001F801800180018001F0011800180C4
:1044E000018021801F00000000000000000000008B
:1044F000000007801C001800300037003980318030
:10450000318019800F000000000000000000000052
:1045100000007F00430003000600060006000600BE
:104520000C000C000C000000000000000000000067
:1045300000001F003180318031801F0031803180C8
:10454000318031801F0000000000000000000000EA
:1045500000001E0033003180318033801D800180D7
:10456000030007003C000000000000000000000005
:1045700000000000000000000C000C000000000023
:1045800000000C000C000000000000000000000013
:104590000000000000000000030003000000000015
:1045A00000000600040008000800000000000000F1
:1045B0000000000000C003000400180060001800A4
:1045C0000400030000C00000000000000000000024
:1045D000000000000000000000007FC000007FC05D
:1045E00000000000000000000000000000000000CB
:1045F00000000000600018000400030000C0030079
:10460000040018006000000000000000000000002E
:10461000000000001F0031803180018007000C0085
:104620000C0000000C000000000000000000000072
:1046300000000E00110021002100270029002900A0
:104640002700200011000E00000000000000000004
:10465000000000003F000F000900198019801F8032
:1046600030C030C079E00000000000000000000011
:10467000000000007F003180318031803F003180B8
:10468000318031807F000000000000000000000049
:10469000000000001F4030C060406000600060000B
:1046A000604030801F00000000000000000000009B
:1046B000000000007F00318030C030C030C030C00A
:1046C00030C031807F0000000000000000000000CA
:1046D000000000007F803080308032003E003200D9
:1046E000308030807F80000000000000000000006B
:1046F000000000007FC03040304032003E003200F9
:10470000300030007C0000000000000000000000CD
:10471000000000001E80318060806000600067C083
:10472000618031801F0000000000000000000000D8
:10473000000000007BC03180318031803F803180BB
:10474000318031807BC000000000000000000000CC
:10475000000000003FC0060006000600060006003C
:10476000060006003FC0000000000000000000003E
:10477000000000001FC003000300030003006300EB
:10478000630063003E000000000000000000000025
:10479000000000007BC03180330036003C003E004A
:1047A0003300318079C000000000000000000000EC
:1047B000000000007E0018001800180018001840C3
:1047C000184018407FC000000000000000000000FA
:1047D00000000000E0E060C071C07BC06AC06EC035
:1047E00064C060C0FBE000000000000000000000AA
:1047F0000000000073C0318039803D8035803780F3
:10480000338031807980000000000000000000004B
:10481000000000001F00318060C060C060C060C048
:1048200060C031801F000000000000000000000098
:10483000000000007F0031803180318031803F00F6
:10484000300030007E00000000000000000000008A
:10485000000000001F00318060C060C060C060C008
:1048600060C031801F000CC01F80000000000000ED
:10487000000000007F003180318031803E00330035
:10488000318031807CE0000000000000000000006A
:10489000000000001F803180318038001F0003803D
:1048A000318031803F000000000000000000000067
:1048B000000000007F804C804C804C800C000C007D
:1048C0000C000C003F000000000000000000000091
:1048D000000000007BC03180318031803180318028
:1048E000318031801F000000000000000000000047
:1048F000000000007BC0318031801B001B001B00CA
:104900000A000E000E000000000000000000000081
:1049100000000000FBE060C064C06EC06EC02A8072
:104920003B803B8031800000000000000000000060
:10493000000000007BC031801B000E000E000E0046
:104940001B0031807BC00000000000000000000060
:104950000000000079E030C019800F00060006005A
:10496000060006001F80000000000000000000009C
:10497000000000003F8021802300060004000C009E
:10498000188030803F800000000000000000000020
:10499000000007800600060006000600060006006C
:1049A0000600060006000600078000000000000068
:1049B00030003000180018000C000C000600030046
:1049C00003000180018000C000C000000000000062
:1049D00000001E0006000600060006000600060095
:1049E00006000600060006001E0000000000000091
:1049F00004000A000A00110020802080000000004E
:104A000000000000000000000000000000000000A6
:104A10000000000000000000000000000000000096
:104A20000000000000000000000000000000FFE0A7
:104A30000800040002000000000000000000000068
:104A40000000000000000000000000000000000066
:104A500000000000000000001F00018001801F8096
:104A6000318033801DC00000000000000000000005
:104A700000007000300030003700398030C030C096
:104A800030C0398077000000000000000000000006
:104A900000000000000000001E8031806080600087
:104AA000608031801F000000000000000000000056
:104AB00000000380018001801D803380618061805F
:104AC000618033801DC00000000000000000000075
:104AD00000000000000000001F00318060C07FC0A7
:104AE000600030C01F8000000000000000000000D7
:104AF000000007E00C000C003F800C000C000C00D4
:104B00000C000C003F8000000000000000000000CE
:104B100000000000000000001DC033806180618043
:104B2000618033801D80018001801F000000000033
:104B30000000700030003000370039803180318053
:104B4000318031807BC000000000000000000000C8
:104B500000000600060000001E0006000600060019
:104B6000060006003FC0000000000000000000003A
:104B700000000600060000003F00030003000300E1
:104B8000030003000300030003003E0000000000D8
:104B90000000700030003000378036003C003C00E0
:104BA0003600330077C00000000000000000000065
:104BB00000001E00060006000600060006000600B3
:104BC000060006003FC000000000000000000000DA
:104BD00000000000000000007F8036C036C036C0F4
:104BE00036C036C076E00000000000000000000083
:104BF0000000000000000000770039803180318023
:104C0000318031807BC00000000000000000000007
:104C100000000000000000001F00318060C060C084
:104C200060C031801F000000000000000000000094
:104C300000000000000000007700398030C030C064
:104C400030C039803700300030007C0000000000A8
:104C500000000000000000001DC033806180618002
:104C6000618033801D800180018007C0000000004A
:104C700000000000000000007B801CC0180018002D
:104C8000180018007F000000000000000000000075
:104C900000000000000000001F8031803C001F0069
:104CA000038031803F000000000000000000000091
:104CB00000001800180018007F00180018001800E5
:104CC000180018800F000000000000000000000025
:104CD00000000000000000007380318031803180CE
:104CE000318033801DC00000000000000000000083
:104CF00000000000000000007BC0318031801B00FC
:104D00001B000E000E00000000000000000000006C
:104D10000000000000000000F1E060C064C06EC050
:104D20003B803B803180000000000000000000005C
:104D300000000000000000007BC01B000E000E0001
:104D40000E001B007BC000000000000000000000FF
:104D5000000000000000000079E030C019801980D8
:104D60000B000F00060006000C003E0000000000D3
:104D700000000000000000003F80218003000E00C2
:104D8000180030803F80000000000000000000009C
:104D9000000006000C000C000C000C000C001800B9
:104DA0000C000C000C000C000600000000000000CD
:104DB00000000600060006000600060006000600C9
:104DC00006000600060006000600000000000000C5
:104DD00000000C00060006000600060006000300A6
:104DE00006000600060006000C000000000000009F
:104DF00000000000000000000000180024800300F4
:104E000000000000000000000000000000000000A2
:104E10002D256C642E2530326C6400D2BBD1F5BBDD
:104E2000AFCCBCA3BA00B6FED1F5BBAFCCBCA3BA25
:104E300000CEC2B6C8A3BA00BCD7CDE9A3BA00D190
:104E4000F5C6F8A3BA000000684E00080000002074
:104E500018000000562E0008804E000818000020A0
:104E6000F0160000662E00082A37000811000B001B
:104E700010001500304200080B00100000127A00EC
:040000050800015599
:00000001FF
