:020000040800F2
:100000001004002069010008CD0A000861090008F9
:1000100000000000000000000000000000000000E0
:10002000000000000000000000000000470B000876
:100030000000000000000000CF0A0008950B000837
:100040007B0100087B0100087B0100087B010008A0
:100050007B0100087B0100087B0100087B01000890
:100060007B0100087B0100087B0100087B01000880
:100070007B0100087B0100087B0100087B01000870
:100080007B0100087B0100087B0100087B01000860
:100090007B0100087B0100087B0100087B01000850
:1000A0007B0100087B0100087B0100087B01000840
:1000B0007B0100087B0100087B0100087B01000830
:1000C0007B0100087B0100087B0100087B01000820
:1000D0007B0100087B010008000000007B01000894
:1000E0007B0100087B0100087B0100087B01000800
:1000F0000000000000000000000000007B0100087C
:1001000000000000000000000000000000000000EF
:100110000000000000000000000000007B0100085B
:100120007B0100087B0100087B0100087B010008BF
:100130007B0100087B0100087B0100087B010008AF
:100140007B0100087B0100087B0100087B0100089F
:100150007B0100080348854600F00AFA0048004782
:10016000710F00081004002004488047044800472D
:10017000FEE7FEE7FEE7FEE7FEE7FEE79D0B000871
:1001800055010008F0B51FB40646002082B00546B0
:100190004024019100901BE0019922460F46304611
:1001A00000F02DFA049A059B801A994110D310464D
:1001B0001946224600F013FA361A8F41019722465B
:1001C00001200021009F00F00AFA38184D410090EC
:1001D0002046641E0028DFDC019B00982946324639
:1001E00007B0F0BDF0B507460846584087B0C00FCD
:1001F000049048000E46590040084908BC1A88413E
:1002000005D2384631461E4617460B460246580070
:10021000400810434CD0300D039040055900400D6C
:10022000490D0590401A0290402872DA1803012106
:10023000000B09050843019004980092002805D09E
:100240000199524200208841009201900298402179
:100250000A1A0199009800F0C2F905460C466B464F
:1002600007CB00F0DDF9C0197141039A0E0D002390
:10027000D71756401A467A40164344D0049A002AAB
:100280002DD0029A012A039A15DC1205C01A914159
:1002900001263605001C7141D20F059ED20700933E
:1002A000019202962A46234600F0DAF907B0F0BD23
:1002B00038463146FAE71605224A0F46B218C01AE8
:1002C000B74101210905001C4F4100187F4111462B
:1002D00018187941E20F10436D19644113E0E207E9
:1002E0006D0815436408C2071443039A01261205DA
:1002F000C01A91413605001C7141CE0740083043B9
:100300004908C01851412A46234600F09CF9CDE720
:10031000FFE7049801224000C117121A00238B4105
:1003200004983146C417381AA141EEE730B40124CD
:10033000E407634030BC55E730B40124E407614072
:1003400030BC4FE70000E0FFF0B51FB488B00B9958
:100350000998002448400999C00F490049080991AB
:10036000C0070B990090490049080B91099908981A
:10037000A64608431CD00B990A98084318D0099840
:1003800001244000420D4800410D09982405000356
:10039000000B204309900B980003000B20430B90A7
:1003A00050181C494018002201901446104605E0E0
:1003B000002001460DB0F0BD032801DA034600E03D
:1003C00003239C46C11A0AAE0AE05F0008ADED5B4C
:1003D0004F00F75B7D430027AA187C41491C5B1E38
:1003E0006145F2DD410004AB5A522104120C0A436C
:1003F000240C401C0828DFDB01980290009970460D
:1004000001910090059B049A0799069800F028F93D
:10041000D0E700000DFCFFFFF0B50C465C4085B056
:10042000E40FE40703944C00002664085900944646
:10043000490802460296224321D062460A431ED052
:100440006200570D4A000E032303550D0124024696
:100450002C492405781B1B0B360B401823432643DD
:10046000614600901C46501AB44103D30098401CCA
:10047000009002E0921800985B41002803DA002007
:10048000014605B0F0BD002001210905074686465A
:1004900011E064461D46141BB54106D36546521B48
:1004A000B341744607430C43A646CD0740084908AC
:1004B000284392185B4105460D43EAD11046184384
:1004C00013D06046194650407140084306D060463C
:1004D000101AB34106D20122002306E000220123B4
:1004E000DB0702E00122D243531000987446010555
:1004F000381C6141029C039D0019694100F0A3F87A
:10050000BFE70000FD0300004A0009030123090BB7
:100510001B0519430A4B10B5520D9A4202DA00200E
:10052000014610BD064B34339A4203DC9A1A00F0A0
:1005300066F810BD034BD21800F051F810BD000052
:10054000FF030000CDFBFFFF10B5002904DB0124F1
:10055000E40740428C412146002B04DB1C4601236A
:10056000DB075242A341994200D1904210BD0000E6
:100570001CB5094800900948019005460126009CD9
:1005800005E0E36807CC33430C3C98471034AC4299
:10059000F7D3FFF7E3FD0000703A0008903A000837
:1005A00070B50446002903D000202022012310E06A
:1005B000002801D00020C043C046C0460DE02546BB
:1005C000D5408D4205D30D469540641B1D46954090
:1005D00040191546521E002DF1DC214670BD10B5A4
:1005E000202A04DB0146203A9140002010BD9140B2
:1005F00020239C1A0346E3401943904010BD10B5D8
:10060000202A04DB0846203AD040002110BD0B46CA
:10061000D340D0402024A21A91400843194610BD6F
:1006200010B5202A06DBCB170846203A1041C11727
:100630000B4306E00B461341D0402024A21A914000
:100640000843194610BD10B5002B08DA0024401CE1
:10065000614192185B411A4301D14008400010BD2E
:10066000F0B51FB482B005460C0003D0084601F077
:1006700035FC02E001F032FC2030024600902146B9
:100680002846FFF7ACFF049B059A04460F46184323
:100690001143084314D0184610431BD00098402142
:1006A0000A1A18460599FFF7AAFF05460E46009A52
:1006B00005990498FFF793FF084305D0012004E053
:1006C0002046394607B0F0BD0020C11705430E4350
:1006D0002C43374300990E986305401A7905E40AC4
:1006E00000220C43FD0A0A3002D500200146E9E74A
:1006F0000105101969410C9C0D9D00196941FFF716
:10070000A2FFDFE780B582B0104800F059FFEA4849
:1007100000F056FFE74800F053FF0920C006012112
:1007200000910022019240F2C07300F094FB009906
:10073000019AE348032300F08EFB0099019A0448D4
:10074000044B00F088FB02B080BDC04613050000DA
:1007500000080048C71D000080B5102000F0A4F874
:10076000012000F0BBF8642000F0C2FA80BD000058
:1007700080B584B0CF4800F023FF0920C006019067
:100780000121039100220292132300F064FB029ADC
:100790000399CB48C02300F05EFB01980299039AAD
:1007A000202300F058FB04B080BDC04680B586B061
:1007B000C34800908021029100F028FB0A2001909C
:1007C00000F096FA0098029900F028FB019800F0DA
:1007D0008FFA00F0B9F8122000F066F800F0B4F8D3
:1007E0000120059000F060F82720049000F076F8D2
:1007F000059800F073F80020039000F06FF81120C6
:1008000000F052F8059800F069F8442000F04CF828
:10081000039800F063F80F2000F060F8452000F026
:1008200043F8049800F05AF8059800F057F8039838
:1008300000F054F8039800F051F83C2000F034F830
:10084000052000F04BF8212000F02EF8039800F06E
:1008500045F8029800F042F8182000F025F80298B8
:1008600000F03CF84E2000F01FF8039800F036F836
:100870004F2000F019F8049800F030F8059800F0C7
:100880002DF800F061F806B080BDC04680B522208A
:1008900000F00AF8F72000F021F8202000F004F81A
:1008A00000F052F880BD000080B584B003A900912B
:1008B00008700920C00601901021029100F0A6FAEC
:1008C0007F48402100F0A2FA0098007800F000F97B
:1008D0000198029900F0A2FA04B080BD80B584B0FE
:1008E00003A9009108700920C0060190102102910F
:1008F00000F08CFA7248402100F090FA00980078DD
:1009000000F0E6F80198029900F088FA04B080BD82
:1009100080B582B001902420FFF7C6FF0020009030
:10092000FFE70098C00924280AD8FFE7019800993A
:10093000405CFFF7D3FFFFE70098401C0090F0E712
:10094000FFF7A4FF02B080BD80B5FFE70920C00615
:10095000202100F06BFA08B9FFE700E0F6E780BD60
:10096000FFE7FEE710B596B01590524800F028FE5C
:10097000514800F025FE514800F022FE0920C00633
:1009800001900221099100220792C023029300F0F6
:1009900062FA0198029B079903220B9200F0A2FAD7
:1009A0000198029A0121089100F0D0F9079A09995B
:1009B0000B9B4348039000F04EFA039807990B9B5A
:1009C0001A4600F08FFA039808990B9A00F0BEF9C6
:1009D0003C480C9001F008F811A8049001F0BAF816
:1009E000099800F005FB0499079A03460C980E93AA
:1009F0000E9C354BB4FBF3F4641E0C80159CB3FBCA
:100A0000F4F35B1E13934A808A808A8101F05CF8BC
:100A10000FA8059000F0DFFF059A0799089B0C9836
:100A20000F93918000F0A6FE059A08990C9800F0AB
:100A3000A1FE059A09990C9800F09CFE059A0B9965
:100A40000C9800F097FE07990C986022069200F02F
:100A500039FF069A08990C9800F034FF069A099914
:100A60000C9800F02FFF069A0B990C9800F02AFFC3
:100A700007990C98139A521C53080DAA0A921380D6
:100A8000128800F07FFF08990A9A0C98128800F0EB
:100A900079FF09990A9A0C98128800F073FF0A9A54
:100AA0000B990C98128800F06DFF0C9801F002F879
:100AB00016B010BD1105000012050000010700006E
:100AC000000400480004004040420F007047704797
:100AD00080B584B003A908700920C006022100F087
:100AE00095F902A900200870FFE702A800780728FE
:100AF00027DCFFE703A800780006002806D5FFE7FB
:100B00000920C006012100F089F905E00920C0068E
:100B1000012100F07BF9FFE70920C00600900221C7
:100B2000019100F07BF90098019900F06FF90398AA
:100B3000400003A90870FFE70298401C02A9087052
:100B4000D3E704B080BD704780B584B002900298AE
:100B5000401E000E18B1FFE70120039011E002983B
:100B6000401E0949086000200190C043032100F0A5
:100B700063F8019805490860054A07211160039050
:100B8000FFE7039804B080BD14E000E018E000E047
:100B900010E000E080B500F09FF880BD10B582B095
:100BA0001D490868012210430860FFE71A480068E1
:100BB0008007002801D4FFE7F8E7184908680322F6
:100BC00090430860144B1868154C20401860086862
:100BD000144B184008600868134B1840086013490C
:100BE00008680F23984308601149086840F203130E
:100BF0009843086008689207904308600D490020F8
:100C00000190086000F09EFD01990120C00600F0EF
:100C1000DDF902B010BDC0460010024004100240D1
:100C2000FFFFF2FE0C00FF08FFFF007F2C100240C8
:100C3000301002400810024070B582B0024601A890
:100C40000270009100214056002816D4FFE70024CE
:100C500001A908570322D3431840174A805809575F
:100C60008C07E50EFF24AC40A043009CA401E4B235
:100C7000AC402043194088501AE001A908780F249D
:100C8000204008380322D34318400A4A80580025E0
:100C900049578D07EE0EFF25B540A843009DAD01D5
:100CA000EDB2B54028432140083919408850FFE78C
:100CB00002B070BD1CED00E000E400E081B00090E7
:100CC00000980A490860FFE70848006808B1FFE794
:100CD000FAE701B07047C0460448006828B1FFE752
:100CE00002490868401E0860FFE7704708000020BE
:100CF00082B00190FFE70198411E019150B1FFE7DA
:100D000005480090FFE70098411E009108B1FFE7F9
:100D1000F9E7F0E702B07047E02E000080B582B03E
:100D20000190009101A80178064800F0E9FFFFE773
:100D30000448054901F047F808B9FFE7F8E70198CA
:100D400002B080BD004400400707000086B0059057
:100D5000049103920598006A01900598406A0090FA
:100D600002A900200880FFE702A8008807281DD8F4
:100D7000FFE702A801880398C840C00780B1FFE7D9
:100D800002A8018889000F228A40019991430191AC
:100D90000499008880008140019808430190FFE792
:100DA000FFE70298401C02A90880DDE702A908209D
:100DB0000880FFE702A800880F281FD8FFE702A8D5
:100DC00001880398C840C00790B1FFE702A80188D6
:100DD000890020390F228A4000999143009104999B
:100DE0000088800020388140009808430090FFE789
:100DF000FFE70298401C02A90880DBE701980599EB
:100E0000086200980599486206B0704782B0019068
:100E1000009100980199886202B0704782B00190F9
:100E2000009100980199886102B0704783B00190E9
:100E30000091019800690099084204D0FFE702A9D7
:100E40000120087003E002A900200870FFE702A853
:100E5000007803B0704787B0069005910492039321
:100E60000698006801900698C068009002A90020CA
:100E70000880FFE702A800880F282BD8FFE702A808
:100E800001880398C840C007F0B1FFE702A80188B5
:100E90004900032213468B40019999430191059B18
:100EA000018849008B40019919430191018849004B
:100EB0008A40009991430091049900884000814044
:100EC000009808430090FFE7FFE70298401C02A942
:100ED0000880CFE701980699086000980699C860D5
:100EE00007B0704710B586B0059004A80170039252
:100EF00002930078012806D1FFE7029A0599486815
:100F00001043486005E0029A05994868904348609C
:100F1000FFE705988068009001A900200880FFE79E
:100F200001A800880F281DD8FFE701A801880298B2
:100F3000C840C00780B1FFE701A80188490003222B
:100F40008A400099914300910399008840008140B4
:100F5000009808430090FFE7FFE70198401C01A9B3
:100F60000880DDE700980599886006B010BD000094
:100F700080B584B00020039000F0E8FBFFF7C2FBCF
:100F800000F066FE7B20029002990E4800F096FF6A
:100F900040F2E830FFF7E6FCFFF7EAFBFFE70299D3
:100FA000084800F08BFF64200190FFF787FEFFF7F1
:100FB000FDFB0548FFF7ACFCFFF7CEFB0198FFF700
:100FC0007DFEECE7543A0008D427000882B0019077
:100FD000009101980099044A1140084303490860B0
:100FE000BFF34F8F02B0704780FFFF1F08ED00E096
:100FF000A0B01FA90870002002901E901D901C90A8
:101000001B901A90199018901790169015901490A4
:1010100013901290119010900F900E90F9490D912D
:10102000F9490C910B900A9009910890079106904C
:1010300005910490F54800680C21084080081E9036
:101040001E98039040B1FFE70398012807D0FFE7FF
:101050000398022806D065E0ED481A9065E0ED4857
:101060001A9062E0E94801683F2292041140890C1D
:10107000139100680121C9060840C00E1290129811
:10108000800113994018139013980F2804D3FFE799
:101090001398401C13900BE013980F2803D1FFE71F
:1010A0001020139003E01398801C1390FFE7FFE7D4
:1010B000D6480068032109040840000C11901198DB
:1010C00070B9FFE7D44800680F210840401C109019
:1010D0001099CF48B0FBF1F1139848431A9020E0E3
:1010E000119801280ED1FFE7CB4800680F21084076
:1010F000401C10901099C748B0FBF1F11398484379
:101100001A900DE0C44800680F210840401C109060
:101110001099C248B0FBF1F1139848431A90FFE7C9
:10112000FFE702E0BA481A90FFE7B8480168C9B281
:1011300009090F910F9A0AA9895C0E911A990E9AC2
:10114000D1401991016840F200721140090A0F91D3
:101150000F9A08A9895C0E9119990E9AD14018919D
:10116000006843F600010840C00A0F900F9906A8D6
:10117000405C0E9019980E99C84017901FA80078EF
:1011800001900B2800D90FE201998A0001A0801874
:101190008746C04600F016B800F017B800F018B83F
:1011A00000F019B800F01AB800F0EBB800F0FCB984
:1011B00000F0FAB900F0F8B900F06FB900F01CB90E
:1011C00000F0AEB91A981B90EFE119981B90ECE172
:1011D00018981B90E9E117981B90E6E1F748006822
:1011E00040F200110840884203D0FFE7F148169012
:1011F000C4E0EF48006880B2800B1D90EF480068A3
:10120000800F1C901D980090032800D9B4E000992D
:101210008A0001A08018874600F006B800F02EB8BA
:1012200000F056B800F080B81C9820B9FFE7179876
:101230004008169021E01C98012806D1FFE7179876
:101240000A21B0FBF1F0169016E01C98022806D196
:10125000FFE719980321B0FBF1F016900BE01C9802
:10126000032806D1FFE719980B21B0FBF1F0169087
:1012700000E0FFE7FFE7FFE7FFE77EE01C9820B90B
:10128000FFE717988008169021E01C98012806D1E6
:10129000FFE717980C21B0FBF1F0169016E01C98B0
:1012A000022806D1FFE719980521B0FBF1F016904E
:1012B0000BE01C98032806D1FFE719980D21B0FB1D
:1012C000F1F0169000E0FFE7FFE7FFE7FFE754E0EB
:1012D0001C9830B9FFE717980621B0FBF1F0169083
:1012E00021E01C98012806D1FFE717980E21B0FBDA
:1012F000F1F0169016E01C98022806D1FFE7199825
:101300000721B0FBF1F016900BE01C98032806D1E2
:10131000FFE719980F21B0FBF1F0169000E0FFE70E
:10132000FFE7FFE7FFE728E01C9820B9FFE71798E1
:10133000C00816901FE01C98012804D1FFE71798F9
:101340000009169016E01C98022806D1FFE71998AC
:101350000921B0FBF1F016900BE01C98032806D190
:10136000FFE719981121B0FBF1F0169000E0FFE7BC
:10137000FFE7FFE7FFE700E0FFE7FFE716981B90B6
:1013800013E18E480068800718B9FFE71798159099
:101390002FE08A48006803210840012803D1FFE7B5
:1013A0001A98159024E08548006803210840022817
:1013B00004D1FFE748F20000159018E07F4800686C
:1013C00003210840032810D1FFE77C48006807216B
:1013D00089040840800C0F900F9904A8405C0E907F
:1013E0000E997548C840159000E0FFE7FFE7FFE75A
:1013F000FFE715981B90D8E0704800688003800FC5
:1014000088B90DE006070809010203040410024030
:101410000024F4000048E8012C100240006CDC02BB
:101420001898159036E065480068032109040840C3
:1014300001210904884203D1FFE71A98159028E09A
:101440005E480068032109040840012149048842DC
:1014500004D1FFE748F20000159019E057480068F2
:10146000032109040840884210D1FFE7534800686F
:10147000072189040840800C0F900F9904A8405C54
:101480000E900E994C48C840159000E0FFE7FFE72A
:10149000FFE7FFE715981B9087E048480068C00405
:1014A000800F18B9FFE71898159036E04348006898
:1014B00041F60001084040F60001884203D1FFE7F1
:1014C0001A98159028E03D48006841F60001084050
:1014D00041F20001884204D1FFE748F20000159074
:1014E00019E03648006841F600010840884210D1F2
:1014F000FFE732480068072189040840800C0F90FC
:101500000F9904A8405C0E900E992B48C840159086
:1015100000E0FFE7FFE7FFE7FFE715981B9044E0D7
:10152000264800684005800F18B9FFE71898149006
:1015300037E02248006840F20061084040F2002194
:10154000884204D1FFE747F60050149028E01B487A
:10155000006840F20061084040F20041884204D136
:10156000FFE748F20000149019E01448006840F2C8
:1015700000610840884210D1FFE710480068072149
:1015800089040840800C0F900F9904A8405C0E90CD
:101590000E990948C840159000E0FFE7FFE7FFE714
:1015A000FFE714981B9000E0FFE71B9820B07047FE
:1015B00004100240006CDC020024F40030100240F1
:1015C00081B001466846018000881F220146114013
:1015D00001238B408109554A88581843885001B02F
:1015E0007047C04681B001466846018000881F22CE
:1015F0000146114001238B4081094C4A8858984389
:10160000885001B07047C04681B0014668460180ED
:1016100000881F220146114001238B408109434A63
:1016200088581843885001B07047C04610B585B03F
:101630000020049003903D4A116801231B041943C4
:1016400011600290FFE70298400B28B9FFE7FFE71F
:101650000298401C0290F6E7FFE70498401C0490B3
:10166000324800680121490408400390FFE70399CC
:101670000020019039B9FFE704982D49401A411E16
:1016800088410190FFE70198C0070028E5D1FFE7F6
:10169000264800688003002802D4FFE7FFE7FEE742
:1016A0002449086801221043062398430860224910
:1016B00000910868086008680860086840F2004304
:1016C000184308601D4B18680F24A0431860186861
:1016D0000324204318600868194B18400860086804
:1016E00019231B04184308601049086812061043A8
:1016F0000860FFE70D4800688001002801D4FFE77B
:10170000F8E70D4908680322904308600868022240
:1017100010430860FFE7084800680C2108400828CB
:1017200001D0FFE7F7E705B010BDC046001002404A
:10173000FFFF000000200240041002402C10024075
:10174000FFFF007F80B5FFF771FF80BD80B50848BF
:10175000006840F2E831B0FBF1F0FFF7F5F910B1A5
:10176000FFE7FFE7FEE70021C843FFF765FA80BD0A
:101770000400002085B0049003A801800292008834
:101780000090032800D999E000998A0001A08018F0
:101790008746C04600F006B800F024B800F045B80F
:1017A00000F067B80499086A01229043086204991E
:1017B0008869032290438861029802680499086A44
:1017C000104308620498006A01900198022188433E
:1017D000019002988188019808430190019804992A
:1017E00008626CE00499086A102290430862049928
:1017F000886940F2003290438861029800680201D3
:101800000499086A104308620498006A01900198DC
:1018100020218843019002988088010101980843A3
:10182000019001980499086249E00499086A40F21D
:101830000012904308620499C86903229043C8616A
:101840000298006802020499086A1043086204982A
:10185000006A0190019840F20021884301900298AB
:101860008088010201980843019001980499086258
:1018700025E00499086A41F2000290430862049945
:10188000C86940F200329043C861029800680203C0
:101890000499086A104308620498006A019001984C
:1018A00042F2000188430190029880880103019868
:1018B0000843019001980499086200E0FFE705B031
:1018C0007047000085B0049003A8018002A90A8037
:1018D00000880090032851D800998A0001A0801840
:1018E0008746C04600F006B800F014B800F024B8EF
:1018F00000F032B804988069019001987021884303
:10190000019002A801880198084301900198049968
:10191000886134E0049880690190019847F20001E1
:101920008843019002A800880102019808430190B1
:1019300001980499886122E00498C0690190019897
:1019400070218843019002A8018801980843019002
:1019500001980499C86112E00498C0690190019847
:1019600047F200018843019002A800880102019813
:101970000843019001980499C86100E0FFE705B0B1
:101980007047000084B0039002A801800192008893
:10199000009003281CD800998A0001A0801887466F
:1019A00000F006B800F008B800F00AB800F00CB873
:1019B0000198039948630CE001980399886308E053
:1019C00001980399C86304E001980399086400E052
:1019D000FFE704B0704781B00090009900200860D4
:1019E0000099888001B0704780B588B0079007984B
:1019F000069001218907884219D0FFE706985349CC
:101A000088421DD0FFE706985149884220D0FFE761
:101A100006982149884223D0FFE706981F4988424B
:101A20002ED0FFE706981E49884221D031E040F2CF
:101A300000400590FFF7E8FD0598FFF7D3FD29E08A
:101A40001B480490FFF7E0FD0498FFF7CBFD21E071
:101A500016480390FFF7D8FD0398FFF7C3FD19E080
:101A600011480290FFF7D0FD0298FFF7BBFD11E08F
:101A70000C480190FFF7C8FD0198FFF7B3FD09E09E
:101A800040F208400090FFF7BFFD0098FFF7AAFD65
:101A900000E0FFE708B080BD0014004000180040DF
:101AA000004C01400B03000005040000040400008A
:101AB0000104000081B000900099086801221043E1
:101AC000086001B07047000082B00190009100985A
:101AD000008801998862019801218907884205D010
:101AE000FFE701981949884212D1FFE70199086878
:101AF000702290430860009842880199086810435A
:101B00000860009882880199086810430860FFE720
:101B1000009880680199C86201980D4988420DD0EB
:101B2000FFE70199086840F200329043086000988E
:101B300082890199086810430860FFE701994869A4
:101B400001221043486102B07047C04600040040C3
:101B50000010004081B0009000990020088000999A
:101B6000488000998880009A024991600099888194
:101B700001B07047FFFF000080B588B00790069164
:101B800000200590049003900290079801908149ED
:101B9000884214D0FFE701987F49884214D0FFE7BC
:101BA00001987E49884214D0FFE701987C49884219
:101BB00014D1FFE70520FFF71BFA05900FE00A207C
:101BC000FFF716FA05900AE00220FFF711FA0590D8
:101BD00005E00220FFF70CFA059000E0FFE7079808
:101BE00000680004002818D5FFE705984000069912
:101BF0004A088018B0FBF1F002900298134908409F
:101C0000049002980007400F039004A8008803A9DD
:101C1000098808430799C86016E0059806994A089C
:101C20008018B0FBF1F00290029808490840049037
:101C300002980F210840039004A8008803A909888E
:101C400008430799C860FFE708B080BDF0FF0000B7
:101C500080B588B02848FFF7B3FC2848FFF7B0FCF0
:101C60000920C00602900721009104220592FFF787
:101C70006DF80099029808220692FFF767F802981B
:101C8000059B0221019101220392FFF7E4F80298DB
:101C9000039A059B00210491FFF724F9019902980A
:101CA000039A069BFFF7D7F80298039A0499069BBC
:101CB000FFF718F93748079000F030F804990798B3
:101CC00000F0E7F80499079800F0BFF80499079826
:101CD00000F097F80798E1210903FFF74DFF0599F8
:101CE000079800F0A3F80699079800F0C3F8079842
:101CF00000F060F808B080BD110500001107000079
:101D000082B001906846018000880349084001992B
:101D1000886202B07047C046FF01000080B586B0FF
:101D20000590059804901B49884217D0FFE7049856
:101D3000194988421AD0FFE70498184988421DD0F3
:101D4000FFE704981649884220D1FFE7184803901E
:101D5000FFF75AFC0398FFF745FC18E01348029080
:101D6000FFF752FC0298FFF73DFC10E00E4801908F
:101D7000FFF74AFC0198FFF735FC08E0094800909E
:101D8000FFF742FC0098FFF72DFC00E0FFE706B0EC
:101D900080BDC04600440040004C00400050004060
:101DA0000038014014040000130400001104000076
:101DB0000E03000081B000900099086801221043D2
:101DC000086001B0704784B000910146009802910C
:101DD00001A9088002980A889209805809881F2260
:101DE0001140C840C00720B1FFE703A901200870D7
:101DF00003E003A900200870FFE703A8007804B0FF
:101E0000704782B0019000910199086801229043C7
:101E100008600199086840F2006290430860009AE7
:101E2000019908681043086002B0704782B00190C1
:101E3000009101990868042290430860009A019972
:101E400008681043086002B0704782B001900091AA
:101E5000019908680122904308600199486843F29B
:101E6000000290434860009A019948681043486016
:101E700002B0704782B00190009101990868082271
:101E800090430860009A019908681043086002B006
:101E9000704782B001900091019908680122904337
:101EA00008600199086841F2000290430860009AB6
:101EB000019908681043086002B070470FB410B56C
:101EC00003A9044B044A029800F0E8F810BC08BCCF
:101ED00004B018471D0D0008000000202021020C4E
:101EE00001D010211046020A01D01046083902091B
:101EF00001D01046091F820801D01046891E4208F1
:101F000001D0881E7047081A704702E008C8121FE7
:101F100008C1002AFAD170477047002001E001C1D2
:101F2000121F002AFBD17047F0B51FB486B0099884
:101F3000089A030D0021024314D05148514A181841
:101F4000504305141198012810981AD0281A401CE3
:101F500000264D4F4D49009601910490002812DA59
:101F6000444211E01198012449A3012801D110989D
:101F7000C1430698119A84600360C26041600BB04F
:101F8000F0BD4042E4E70446210500203F4A001C22
:101F900051410391029012E0E00707D032463B46E0
:101FA00001990098FEF7D0F90191009032463B4626
:101FB00010461946FEF7C8F906460F466410002C75
:101FC000EAD10498039B0028029A0999089806DA36
:101FD000FEF7BAF9019B009AFEF7B6F905E0FEF7A5
:101FE0001BFA019B009AFEF717FA04460E460022E0
:101FF000284BFEF7A9FA03D80020C043014607E0AA
:102000000022254B20463146FEF7ECF8FEF77CFA1D
:10201000102409E0002C0ADB0A220023FEF7B2F8A4
:10202000079B30321A55641E02460A43F2D1112230
:10203000641C079B121B1C19119B012B03D001234D
:1020400008430ED10AE0084304D01120109000206C
:10205000119077E71098151A6D1E0BE010988242C8
:1020600002DD00236D1C03E0824201DA00236D1EB5
:10207000002BEED0069811998260C16030C07EE7D7
:1020800001FCFFFF104D0000000014400000F03F75
:10209000300000000000F0430000E03FFFB597B0C3
:1020A0000646002518E2252877D100242746FD4959
:1020B000049400E00443761C32780120203A9040DA
:1020C0000842F7D130782A280ED002223078014613
:1020D0003039092916D804990A2359433039401850
:1020E0001443761C0490F1E7189802C804911890E4
:1020F000002904DA012040030443484204900220EE
:102100000443761C30782E2814D1042004437078C0
:10211000761C2A2809D11898761C80C8189009E0E6
:102120000A214F43303FC719761C307801463039B9
:102130000929F5D930786C2810D006DC4C281AD043
:1021400068280ED06A2817D104E0742813D07A28A2
:1021500012D110E00120400504430CE001210905E3
:1021600001E0032109050C437178814203D101206C
:1021700000052418761C761C3078119066280BD048
:1021800013DC58287DD009DC00287BD04528F6D008
:102190004628F4D047281AD1A5E118E0632835D0A5
:1021A000642870D0652812D19DE170286CD008DCBD
:1021B0006728F1D069287BD06E280DD06F2806D112
:1021C000BAE073282ED0752871D0782859D01A9A81
:1021D000199990476D1C7EE16002400F022809D0DA
:1021E00003280DD00428189801680DD00D60001D3B
:1021F000189070E11898EA1701680D604A60F6E7D8
:10220000189801680D80F2E70D70F0E718986A469B
:1022100001781172001D18900020507202A80090E1
:10222000012005E0189802C8189000200091C043D2
:1022300061070DD5002101E00199491C0191B942C6
:1022400012DA8142F8DB009A515C0029F4D10BE0EC
:10225000002101E00199491C01918142FADB019AB8
:102260000099895C0029F5D1019904981A9B471AB5
:1022700021463846199A00F097FA019940194518F5
:102280000BE04FE02CE113E04EE00098009900785D
:10229000491C00911A9A199990470198401E019083
:1022A000401CF2D1214638461A9B199A10E137E0BA
:1022B0000A200021009001916002410F022907D0FD
:1022C000189A01CA1892C2179446032908D00AE046
:1022D0001898C01DC108C90005C91891944607E0A7
:1022E00000B2C2179446042902D140B2C1178C46ED
:1022F00000226146944506DA0A4600214042914197
:102300008C462D2102E0210504D52B216A4611734C
:10231000012103E0E10701D02021F7E7029155E018
:102320000A200AE0102008E010200090002104207C
:1023300004430191082703E0082000210191009047
:102340006002410F022907D0189A01CA1892002290
:102350009446032908D008E01898C01DC108C90098
:1023600005C91891944603E080B2042900D1C0B297
:1023700000210291210729D51199702906D0009AD0
:102380001021019B4A401A4305D00EE040216A46C5
:102390001173012108E06146014306D030216A46ED
:1023A00011731199517302210291009A0821019B26
:1023B0004A401A430AD16146014301D1610705D55C
:1023C00030216A46117301217F1E0291119958290B
:1023D00004D035A10E910DA90D910DE037A1F9E7BB
:1023E0006146019B009AFDF7CDFE0E9B8C469B5CDF
:1023F0000D9A521E0D92137061460143F0D10D9853
:1024000005A9081A20300190600703D501200004B7
:10241000844300E001270198874201DD381A00E07B
:102420000020019900904118029809180498401A58
:102430000490E00306D421461A9B199A049800F0F0
:10244000B3F94519002706E003A81A9AC05D199947
:1024500090476D1C7F1C02988742F5DBE0030CD58A
:1024600021461A9B199A049800F09EF9451904E038
:102470001A9A3020199990476D1C0099481E0090B7
:102480000029F5DC08E00D980D990078491C0D91A4
:102490001A9A199990476D1C0199481E01900029BC
:1024A000F1DC63E10928010030313233343536374D
:1024B0003839616263646566000000003031323390
:1024C0003435363738394142434445460000000030
:1024D00000F05AF94519761C3078002800D0E2E562
:1024E00028461BB0F0BD600700D406271898C01D11
:1024F000C108C90048680A680831C30FDB07189192
:10250000190001D09CA108E0210501D59BA104E0A0
:10251000E10701D09AA100E09AA1430011985B085D
:10252000109165280CD006DC452809D046281DD01E
:10253000472841D141E0662818D067283CD13CE0CB
:102540000021112F01DB112000E0781C0191009087
:1025500008A911A8FFF7E8FC139905910021119A29
:1025600015927F1C12980197009150E00120C0073E
:1025700003900120019008A9009711A8FFF7D4FC4F
:10258000139A149905920022119B009212981593A8
:10259000059A0192002901D0104602E0791C4018EA
:1025A0000190381A01D5019804E04042401E009085
:1025B000781C0190C01B029043E0012F00DA012734
:1025C0000021112F01DD112000E03846019100901B
:1025D00008A911A8FFF7A8FC13990591119A0021E9
:1025E000129815920091019721070CD40599B942D0
:1025F00001DB019900E00191012904DD159A491ED2
:10260000515C302906D0B84201DA011D05DA0121FA
:10261000029115E00199491EEDE7002805DC0099BB
:10262000411800910199091A03E0019A411C914255
:1026300000DD01910099401A401C02900120C00762
:102640000390200706D402990198814202DB002002
:10265000C043029000206946C87707AF0121039864
:102660000337C907884224D0022011902B201290F2
:10267000039800280CDA404203902D20129007E0C6
:102680000A210398FDF78CFF30317F1E03903970CB
:102690001199481E11900029F2DC03980028EFD10F
:1026A000791E129808703078202108404530BF1EEE
:1026B000387006A8C01BC01D039010980078002831
:1026C00000D00120019941180298C01709180398F9
:1026D00009180498401A401E0490E00306D42146CD
:1026E0001A9B199A049800F05FF845191098007821
:1026F000002803D01A9A199990476D1CE00324D53D
:1027000021461A9B199A049800F04EF845191CE0CE
:102710000098002807DB00990598884203DD15988A
:10272000405C199901E0199930201A9A9047009855
:102730006D1C401C00900298401E0290002804D19D
:102740001A9A2E20199990476D1C0199481E0190E4
:102750000029DDDC05E038781A9A7F1C199990472A
:102760006D1C0399481E03900029F4DC21461A9B36
:10277000199A0498ACE600002D0000002B00000020
:102780002000000000000000F8B5044600251E46A9
:102790001746880404D405E039462020B0476D1C54
:1027A000641EF9D52846F8BDFFB50446002581B062
:1027B0001E46C80301D5302700E02027880404D531
:1027C00005E038460399B0476D1C641EF9D52846CC
:1027D00005B0F0BDFFFFFFFFFFFFFFFFFFFFFFFFA3
:1027E000FFFFFFFFFFFFFFFFFFFFFFFFFFFFFFFFF9
:1027F000FFFFFFFFFFFFFFFFFFFFFFFFFFFFFFFFE9
:10280000FFFFFFFFFFFFFFFFFFFFFFFFFFFFFFFFD8
:10281000FFFFFFFFFFFFFFFFFFFFFFFFFFFFFFFFC8
:10282000FFFFFFFFFFFFFFFFFFFFFFFFFFFFFFFFB8
:10283000FFFFFFFFFFFFFFFFFFFFFFFFFFFFFFFFA8
:10284000FFFFFFFFFFFFFFFFFFFFFFFFFFFFFFFF98
:10285000FFFFFFFFFFFFFFFFFFFFFFFFFFFFFFFF88
:10286000FFFFFFFFFFFFFFFFFFFFFFFFFFFFFFFF78
:10287000FFFFFFFFFFFFFFFFFFFFFFFFFFFFFFFF68
:10288000FFFFFFFFFFFFFFFFFFFFFFFFFFFFFFFF58
:10289000FFFFFFFFFFFFFFFFFFFFFFFFFFFFFFFF48
:1028A000FFE7FFFFFFFFFFFFFFFFFFFFFFFFFFFF50
:1028B000FFE0FFFFFFFFFFFFFFFFFFFFFFFFFFFF47
:1028C000FFF83FFFFFFFFFFFFFFFFFFFFFFFFFFFDF
:1028D000FFFE3FFFFFFFFFFFFFFFFFFFFFFFFFFFC9
:1028E000FFF07FFFFFFFFFFFFFFFFFFFFFFFFFFF87
:1028F000FFE3FFFFFFFFFFFFFFFFFFFFFFFFFFFF04
:10290000FFF07FFFFFFFFFFFFFFFFFFFFFFFFFFF66
:10291000FFFE3FFFFFFFFFFFFFFFFFFFFFFFFFFF88
:10292000FFF83FFFFFFFFFFFFFFFFFFFFFFFFFFF7E
:10293000FFE0FFFFFFFFFFFFFFFFFFFFFFFFFFFFC6
:10294000FFE7FFFFFFFFFFFFFFFFFFFFFFFFFFFFAF
:10295000FFE7FFFFFFFFFFFFFFFFFFFFFFFFFFFF9F
:10296000FFE0FFFFFFFFFFFFFFFFFFFFFFFFFFFF96
:10297000FFF83FFFFFFFFFFFFFFFFFFFFFFFFFFF2E
:10298000FFFE3FFFFFFFFFFFFFFFFFFFFFFFFFFF18
:10299000FFF07FFFFFFFFF80000000FFFFFFFFFF52
:1029A000FFE3FFFFFFFFFFBFFEE7FEFFFFFFFFFFAD
:1029B000FFF07FFFFFFFFFBFFEE7FE00007FFFFF8E
:1029C000FFFE3FFFFFFFFFBF9EE7FE00007FFFFF10
:1029D000FFF83FFFFFFFFFBF0EE7FEFFFC7FFFFF9B
:1029E000FFE0FFFFFFFFFFBEF6E7FEFFE001FFFF96
:1029F000FFE7FFFFFFFFFFBEF6E7FEFF83C0FFFF1D
:102A0000FFE7FFFFFFFFFFBF9EE7FEFF1FFC7FFF0B
:102A1000FFE0FFFFFFFFFFBFFEE7FEFE3FFE7FFF81
:102A2000FFF83FFFFFFFFFBFFEE7FEFC7FFF3FFF1A
:102A3000FFFE3FFFFFFFFFBFFEE7FEF8FFFF1FFFA8
:102A4000FFF07FFFFFFFFFBF9EE7FEF9FFFF9FFF45
:102A5000FFE3FFFFFFFFFFBF0EE7FEF9FC7F9FFFD5
:102A6000FFF07FFFFFFFFFBEF6E7FEFBF83F9FFF93
:102A7000FFFE3FFFFFFFFFBEF6E7FEFBFB9FDFFF12
:102A8000FFF83FFFFFFFFFBEF6E7FEFBFB9FDFFF08
:102A9000FFE0FFFFFFFFFFBF0EE7FEFBFB9FDFFF37
:102AA000FFE7FFFFFFFFFFBFFEE7FEFBF91FDFFFB2
:102AB000FFFFFFFFFFFFFFBFFEE7FEF9F83F9FFFAD
:102AC000FFFF3FFFFFFFFFBFFEE7FEF8FFFF9FFF97
:102AD000FFFF3FFFFFFFFFBF9EE7FEF8FFFF3FFF47
:102AE000FFFFFFFFFFFFFFBF0EE7FEFCFFFF7FFFC3
:102AF000FFF06FFFFFFFFFBEF6E7FEFE3FFE7FFF2A
:102B0000FFE037FFFFFFFFBEF6E7FEFF0FF8FFFF16
:102B1000FFEFB7FFFF9FFFBEF6E7FEFF87F1FFFF66
:102B2000FFF777FFFF8FFFBF0EE7FEFFC387FFFFB3
:102B3000FFE007FFFF83FFBFFEE7FEFFF83FFFFF59
:102B4000FFE00FFFFF90FFBFFEE7FEFFFCFFFFFF70
:102B5000FFFFFFFFFF987FBFFEE7FEFFFCFFFFFFC9
:102B6000FFFFFFFFFF9F0FBFFEE7FEFFF007FFFF26
:102B7000FFF07FFFFF9F8000000000FFC3C3FFFF47
:102B8000FFE03FFFFF9FC000000000FFCFF1FFFF0D
:102B9000FFEFBFFFFF9FFFFFFFFFFEFF8FF8FFFF6D
:102BA000FFEFBFFFFF9FFFFFFFFFFEFCFFFF3FFFA9
:102BB000FFE03FFFFF9FFFFFFFFFFEFCFFFF1FDF68
:102BC000FFF07FFFFF9FFFFFFFFFFEF9FFFF9FDF8B
:102BD000FFFFFFFFFF98001FFFFFFEF9FC7F9FDF55
:102BE000FFFFFFFFFF98001FFFFFFEF9FC3FDFC064
:102BF0000FF07FFFFF98FFDFFFFFFEFBFB9FDFC0B3
:102C00000FE03FFFFF98FFDFFFFFFEFBFB9FDFDFD3
:102C1000FFEFBFFFFF98FFDFFFFFFEFBFB9FDFDF44
:102C2000FFEFBFFFFF98FFDFFFFFFEFBFB9FDFDF34
:102C3000FFE03FFFFF98FFDFFFFFFEF9F83F9FFF38
:102C4000FFF07FFFFF98FFDFFFFFFEF9FC7F9FFC97
:102C50001FFFFFFFFF98FFDFFFFFFEF9FFFF9FF859
:102C60000FFFFFFFFF98FFDFFFFFFEF8FFFF3FFBB7
:102C7000EFF07FFFFF98FFDFFFFFFEFC7FFF3FFBD2
:102C8000EFE03FFFFF98001FFFFFFEFF0FF8FFF888
:102C90000FEFBFFFFF98001FFFFFFEFF87F1FFFC54
:102CA0001FF77FFFFF9FFFFFFFFFFEFFC3C7FFFF71
:102CB000FF003FFFFF9FFFFFFFFFFEFFF00FFFFF43
:102CC000FF003FFFFF9FFFFFFFFFFEFFFCFFFFF93D
:102CD000FDFFFFFFFF9FFFFFFFFFFEFFFCFFFFF871
:102CE0003DFEFFFFFF9FFFFFFFFFFEFFFCFFFFFE1C
:102CF00001FEFFFFFF800000000000FFFC7FFFFEE1
:102D000003FEFFFFFF800000000000FFE007FFF868
:102D10003FFFFFFFFFFFFFDFFFFFFEFF8003FFF925
:102D2000FFF07FFFFFFFFFDFCFCF8EFF0FF87FFFAA
:102D3000FFE03FFFFFFFFFDF87870EFF3FFC7FFBCA
:102D4000FFEFBFFFFFFFFFDF333776FEFFFF3FE000
:102D50000FF77FFFFFFFFE1F333776FC7FFF1FE07B
:102D60000F003FFFFFFFE05F87870EF8FFFF9FFB2D
:102D7000EF003FFFFFFFC1DFCFCF8EF9FC7FDFFF0A
:102D8000FFFFFFFFFFFFC3DFFFFFFEFBFBBFDFFF18
:102D9000FFFFFFFFFFFF8FDFFFFFFEF9FBBFDFF845
:102DA0000F203FFFFFFF8FDFFFFFFEF9FBBFDFF8C4
:102DB0000F203FFFFFFF8FDFFFFFFEF9FBBFDFF9B3
:102DC000FFFFFFFFFFFF8FDFFFFFFEF9F87FDFFB55
:102DD000FFF37FFFFFFF8FDFFFFFFEF9FC7FDFFFC9
:102DE000FFE13FFFFFFF87DFFFFFFEF8FFFF9FFDD3
:102DF0009FE9BFFFFFFFC3DFFFFFFEF8FFFF9FF963
:102E00000FECBFFFFFFFC1DFFFFFFEFEFFFF1FFB59
:102E10006FE43FFFF3FFE0DFFFFFFEFE7FFF3FFBBE
:102E20004FF67FFFF01FFC1FFFFFFEFF0FFCFFF8B8
:102E30000FE007FFF01FFE1FFFFFFEFF0FF8FFFC74
:102E40000FE007FFF3E07FDFFFFFFEFFF00FFFFF64
:102E5000FFF77FFFF3FC0FDFFFFFFEFFFE7FFFFFAB
:102E6000FFEFBFFFF3FF81DFFFFFFEFFFE7FFFD815
:102E70000FE03FFFF3FFC0DFFFFFFEFFFE7FFFD845
:102E80000FF07FFFF3FFFE1FFFFFFEFFFE7FFFFF40
:102E9000FFFFFFFFF3FFFE1FFFFFFEFFFE7FFFFFB1
:102EA000FFFFFFFFF3FFFFDFFFFFFEFFFE7FFFF8E7
:102EB0000F003FFFF3FFFFDFFFFFFEFFFE7FFFF886
:102EC0000F003FFFF3FFFFDFFFFFFEFFFE7FFFF975
:102ED000FFFFFFFFF3FFFFDFFFFFFEFFFC3FFFFBF6
:102EE000FFFFFFFFF3FFFFDFFFFFFEFFC003FFF861
:102EF0000FF67FFFF3FFFFDFFFFFFEFF87E1FFFC21
:102F00000FEC3FFFF3FFFFDFFFFFFEFF0FF8FFFFB8
:102F1000FFE9BFFFF3FFFFDFFFFFFEFF1FF8FFFF2B
:102F2000FFEBBFFFF3FFFF9FFFFFFEFCFFFF1FFF55
:102F3000FFE03FFFF3FFFE1FFFFFFEF8FFFF1FFF55
:102F4000FFF03FFFF3FFE01FFFFFFEF9F83F9FFF99
:102F5000FFFFFFFFF3FF01DFFFFFFEF9F81FDFFFB9
:102F6000FFE7F7FFF3F80FDFFFFFFEF9FB9FDFFF3F
:102F7000FFE0F7FFF380FFDFFFFFFEF9F39FDFFFC6
:102F8000FFF807FFF207FFDFFFFFFEF9F39FDFFF08
:102F9000FFFF07FFF01FFFDFFFFFFEF9FB9FDFFFD3
:102FA000FFF81FFFF07FFFDFFFFFFEF9FB9FDFFF52
:102FB000FFE0FFFFFFFFFFDFFFFFFEF9FC7FDFFF0A
:102FC000FFE7FFFFFFFFFFDFFFFFFEF8FFFF9FFFB1
:102FD000FFFF3FFFFFFFFFDFFFFFFEFCFFFF9FFF45
:102FE000FFFF3FFFFFFFFFDFFFFFFEFC7FFF3FFF15
:102FF000FFFFFFFFFFFFFFDFFFFFFEFE7FFF7FFF03
:10300000FFFFFFFFFFFFF01FFC0FFEFF87F1FFFF39
:10301000FFF07FFFFFFFF01FF000FEFFE003FFFF68
:10302000FFE03FFFFFFFF7DFC000FE7FF807FFFF75
:10303000FFEFBFFFFFFFF7DF03F83E7FFE7FFFFFDD
:10304000FFEFBFFFFFFFF7DE3FFF0E1FFE7FFFFF1B
:10305000FFE73FFFFFFFF7DE7FFF8E8FFE7FFFFF63
:10306000FFF77FFFFFFFF7DC7FFFCE87FE7FFFFFCD
:10307000FFFFFFFFFFFFF7D9FFFFEEE3FE7FFFFF3C
:10308000FFF07FFFFFFFF019FFFFF6F1FE7FFFFF6C
:10309000FFE03FFFFFFFF000000002F8FE7FFFFFB0
:1030A000FFEFBFFFFFFFF7DFFFFFFFFC7E7FFFFFAC
:1030B000FFEFBFFFFFFFF7DFFFFFFFFE3E7FFFFFDA
:1030C000FFE03FFFFFFFF7DFFFFFFFFF1E7FFFFF78
:1030D000FFF07FFFFFFFF01FFFFFFFFF0E7FFFFFEF
:1030E000FFFFFFFFFFFFFFFFFFFFFFFFE67FFFFF89
:1030F000FFFFFFFFFFFFFFFFFFFFFFFFF27FFFFF6D
:10310000FFE03FFFFFFFFFFFFFFFFFFFF87FFFFF35
:10311000FFE03FFFFFFFFFFFFFFFFFFFF87FFFFF25
:10312000FFF7FFFFFFFFFFFFFFFFFFFFFC7FFFFF3A
:10313000FFEFFFFFFFFFFFFFFFFFFFFFFE7FFFFF30
:10314000FFE03FFFFFFFFFFFFFFFFFFFFFFFFFFF6E
:10315000FFE03FFFFFFFFFFFFFFFFFFFFFFFFFFF5E
:10316000FFF7FFFFFFFFFFFFFFFFFFFFFFFFFFFF77
:10317000FFEFFFFFFFFFFFFFFFFFFFFFFFFFFFFF6F
:10318000FFE03FFFFFFFFFFFFFFFFFFFFFFFFFFF2E
:10319000FFF03FFFFFFFFFFFFFFFFFFFFFFFFFFF0E
:1031A000FFFFFFFFFFFFFFFFFFFFFFFFFFFFFFFF2F
:1031B000FFFFFFFFFFFFFFFFFFFFFFFFFFFFF0002D
:1031C0000007FFFFFFFFFFFFFFFFFFFFFFFFF00014
:1031D0000007FFFFFFFFFFFFFFFFFFFFFFFFF00004
:1031E0000007FFFFFFFFFFFFFFFFFFFFFFFFF000F4
:1031F0000007FFFFFFFFFFFFFFFFFFFFFFFFFFFFD6
:10320000FFFFFFFFFFFFFFFFFFFFFFFFFFFFF000DC
:103210000007FFFFFFFFFFFFFFFFFFFFFFFFFFFFB5
:10322000FFFFFFFFFFFFFFFFFFFFFFFFFFFFFFFFAE
:10323000FFFFFFFFFFFFFFFFFFFFFFFFFFFFF000AC
:103240000007FFFFFFFFFFFFFFFFFFFFFFFFF00093
:103250000007FFFF0000000000000000007FF000FA
:103260000007FFFF0000000000000000007FF000EA
:103270000007FFFF0000000000000000007FFFFFCC
:10328000FFFFFFFF0000000000000000007FFFFFC5
:10329000FFFFFFFF0000000000000000007FF000C3
:1032A0000007FFFF0000000000000000007FF000AA
:1032B0000007FFFF0000000000000000007FFFFF8C
:1032C000FFFFFFFF0000000000000000007FF00093
:1032D0000007FFFF0000000000000000007FFFFF6C
:1032E000FFFFFFFF0000000000000000007FFFFF65
:1032F000FFFFA7FF0000000000000000007FFFFFAD
:10330000FFFF5BFF0000000000000000007FFFFFE8
:10331000FFFF5BFF0000000000000000007FF000E6
:1033200000075BFF0000000000000000007FFFFFBF
:10333000FFFFA7FF0000000000000000007FFFFF6C
:10334000FFFFFFFF07FE000000000000007FF0000D
:103350000007E7FF0002000000000000007FF0000F
:103360000007D7FF0002000000000000007FFFFF01
:10337000FFFFB7FF0002000000000000007FFFFF1A
:10338000FFFF77FF00020003E0038000007FFFFFE4
:10339000FFFF03FF00020007F0038000007FF00042
:1033A0000007F7FF0000000FF8038000007FFFFF19
:1033B000FFFF87FF04FE001FFC01C000007FFFFF2E
:1033C000FFFF5BFF0000001E3C01C000007FF0001B
:1033D00000075BFF0000003C3E01C000007FF000E2
:1033E00000075BFF00FE03F81E01FC00007FFFFFEB
:1033F000FFFF67FF004003F80F01FC00007FFFFFA5
:10340000FFFFFFFF008003F80F01FC00007FFFFFBC
:10341000FFFFFFFF0080003807838000007FF0007F
:103420000007BFFF007E003807FF8000007FFFFF1E
:10343000FFFFBFFF0040001C03FF0000007FF00003
:10344000000703FF0080001801FE0000007FFFFF5F
:10345000FFFFFFFF00800000007C0000007FFFFFF7
:10346000FFFF9BFF007E000000000000007FF000D7
:1034700000076BFF0000000000000000007FF0006C
:1034800000076BFF04FE000000000000007FFFFF4C
:10349000FFFF6BFF0000000000000000007FFFFF47
:1034A000FFFF87FF0080000000000000007FF000A9
:1034B0000007FFFF03FE000C00000000807FFFFFFD
:1034C000FFFF97FF0082000E00000003807FFFFFD8
:1034D000FFFF5BFF0000001C00000004807FFFFF77
:1034E000FFFF5BFF0000001C00000008807FF00071
:1034F00000075BFF007C00180000001FF07FF00059
:10350000000767FF0092003FFFFFE000807FF000B0
:103510000007FFFF0092003FFFFFE000007FFFFF7A
:10352000FFFF87FF0092003FFFFFE00FC07FFFFF1C
:10353000FFFF5BFF0074003FFFFFE010207FF00003
:1035400000075BFF0000000000000020107FFFFF6D
:10355000FFFF5BFF0000000000000010207FFFFF66
:10356000FFFF67FF007C00000000000FC07FFFFF2F
:10357000FFFFFFFF0082000000000000007FF0005E
:10358000000797FF0082000000000000007FFFFF9F
:10359000FFFF5BFF0042000000000000007FFFFF14
:1035A000FFFF5BFF07FE00000000C00E007FFFFF73
:1035B000FFFF5BFF001000000001C011007FFFFF54
:1035C000FFFF67FF0010003C0001C011107FFFFFEC
:1035D000FFFFFFFF001000380000E011307FF00017
:1035E0000007FFFF000000380E00E00EC07FF00073
:1035F0000007FFFF008000700E00E001007FF00078
:103600000007FFFF03FE00700E00E007E07FF00000
:103610000007FFFF008200700E00E01A107FFFFF1E
:10362000FFFFFFFF000000701F00E012107FFFFF90
:10363000FFFFFFFF000000781F01C002107FF000B5
:103640000007FFFF04FE007C3B83C001E07FFFFF1B
:10365000FFFFFFFF0000003FFBFF8000007FF00046
:103660000007FFFF0000003FF1FF8000007FF00037
:103670000007FFFF00FE001FE0FF0000007FF000DA
:103680000007FFFF00400007807C0001C07FF000C2
:103690000007FFFF0080000000000002207FF00014
:1036A0000007FFFF0080000000000004107FF00012
:1036B0000007FFFF007E000000000004107FFFFFF6
:1036C000FFFFFFFF0040000000000002207FFFFF1F
:1036D000FFFFFFFF008000000001C001C07FFFFF6F
:1036E000FFFFFFFF008000000003C000007FFFFF1E
:1036F000FFFFFFFF007E00000003E004007FFFFFEC
:10370000FFFFFFFF000000000003C01FF07FFFFF6E
:10371000FFFFFFFF007C00000001C024007FFFFFCF
:10372000FFFFFFFF0092000000000024007FFFFF6A
:10373000FFFFFFFF00920000003C001FF07FFFFF33
:10374000FFFFFFFF00920003C0FF0024007FFFFF88
:10375000FFFFFFFF0074000FE1FF8020007FFFFFED
:10376000FFFFFFFF0000001FF3FFC000007FFFFF0F
:10377000FFFFFFFF0000003FFBC3C000007FFFFF13
:10378000FFFFFFFF000000387F01E000007FFFFF28
:10379000FFFFFFFF000000701E00E000007FFFFF42
:1037A000FFFFFFFF000000701E00E000007FFFFF32
:1037B000FFFFFFFF000000700E00E000007FFFFF32
:1037C000FFFFFFFF006400700E00E000007FFFFFBE
:1037D000FFFFFFFF009200701F00E000007FFFFF6F
:1037E000FFFFFFFF009200783F81E000007FFFFFB6
:1037F000FFFFFFFF0092003FFFC3C000007FF804FF
:10380000A0401FFF004C001FF3FFC000007FFBF42F
:1038100013CFDFFF0000001FE1FF8000007FFBF4FB
:1038200013CFDFFF0000000780FF0000007FFA17C2
:103830003248DFFF004C0000007C0000007FFA17D8
:1038400091C8DFFF0092000000000000007FFA171F
:103850006FC8DFFF0092000000000000007FFBF453
:1038600092CFDFFF00940001F8000000007FF80411
:10387000AD401FFF007E0007FE000000007FF8043F
:10388000AD401FFF0000001FFF00E000007FFFFCB5
:103890006EFFFFFF07FE001FFF80E000007FFF17A5
:1038A0006F071FFF0000003E0F80E000007FFAE876
:1038B000A0F33FFF0000003803C0E000007FFA04DF
:1038C00043FB3FFF007C007001C1C000007FF8385F
:1038D00072053FFF0092007001C1C000007FF83800
:1038E00072053FFF0092007001C1C000007FFD140F
:1038F0006F72DFFF009200700183C000007FFF2C19
:10390000F349FFFF0074007001878000007FFAD048
:10391000FC431FFF00000038038F0000007FFEFF04
:1039200020F1FFFF0000003E073E0000007FFE0385
:1039300041021FFF0064001FFFFC0000007FFE0328
:1039400041021FFF0092000FFFF80000007FFFFF01
:103950000D793FFF00920007FFE00000007FF807AD
:10396000AF493FFF00920000FE000000007FFBF720
:1039700010783FFF004C000000000000007FFA14A8
:103980003C033FFF0000000000000000007FFA142D
:103990001DC9DFFF0000000000000000007FFA14D6
:1039A0001DC9DFFF0000000000000000007FFA17C3
:1039B0007E3AFFFF0000000000000000007FFBF7E0
:1039C00031F9FFFF0000000000000000007FF80751
:1039D0008CC41FFF0000000000000000007FFFFFFC
:1039E000FFFFFFFF0000000000000000007FFFFF5E
:1039F000FFFFFFFF0000000000000000007FFFFF4E
:103A0000FFFFFFFF0000000000000000007FFFFF3D
:103A1000FFFFFFFF0000000000000000007FFFFF2D
:103A2000FFFFFFFF0000000000000000007FFFFF1D
:103A3000FFFFFFFF0000000000000000007FFFFF0D
:103A4000FFFFFFFF0000000000000000007FFFFFFD
:103A5000FFFFFFFF48656C6C6F2C2055534152549B
:103A600021206E756D203D2025640D0A00000000A8
:103A7000903A000800000020080000000A1F00081B
:103A8000983A000808000020080400001A1F0008E7
:083A9000000000000090D003CB
:040000050800015599
:00000001FF
