:020000040800F2
:10000000B816002069010008F90A00088D090008E7
:1000100000000000000000000000000000000000E0
:1000200000000000000000000000000001110008B6
:1000300000000000000000008910000851110008B5
:100040007B0100087B0100087B0100087B010008A0
:100050007B0100087B0100087B0100087B01000890
:100060007B0100087B0100087B0100087B01000880
:100070007B0100087B0100087B0100087B01000870
:100080007B0100087B0100087B0100087B01000860
:100090007B0100087B0100087B0100087B01000850
:1000A0007B0100087B0100087B0100087B01000840
:1000B0007B0100087B0100087B0100087B01000830
:1000C0007B0100087B0100087B0100087B01000820
:1000D0007B0100087B010008000000007B01000894
:1000E0007B0100087B0100087B0100087B01000800
:1000F0000000000000000000000000007B0100087C
:1001000000000000000000000000000000000000EF
:100110000000000000000000000000007B0100085B
:100120007B0100087B0100087B0100087B010008BF
:100130007B0100087B0100087B0100087B010008AF
:100140007B0100087B0100087B0100087B0100089F
:100150007B0100080348854600F00AFA0048004782
:100160002D150008B81600200448804704480047B1
:10017000FEE7FEE7FEE7FEE7FEE7FEE759110008AF
:1001800055010008F0B51FB40646002082B00546B0
:100190004024019100901BE0019922460F46304611
:1001A00000F02DFA049A059B801A994110D310464D
:1001B0001946224600F013FA361A8F41019722465B
:1001C00001200021009F00F00AFA38184D410090EC
:1001D0002046641E0028DFDC019B00982946324639
:1001E00007B0F0BDF0B507460846584087B0C00FCD
:1001F000049048000E46590040084908BC1A88413E
:1002000005D2384631461E4617460B460246580070
:10021000400810434CD0300D039040055900400D6C
:10022000490D0590401A0290402872DA1803012106
:10023000000B09050843019004980092002805D09E
:100240000199524200208841009201900298402179
:100250000A1A0199009800F0C2F905460C466B464F
:1002600007CB00F0DDF9C0197141039A0E0D002390
:10027000D71756401A467A40164344D0049A002AAB
:100280002DD0029A012A039A15DC1205C01A914159
:1002900001263605001C7141D20F059ED20700933E
:1002A000019202962A46234600F0DAF907B0F0BD23
:1002B00038463146FAE71605224A0F46B218C01AE8
:1002C000B74101210905001C4F4100187F4111462B
:1002D00018187941E20F10436D19644113E0E207E9
:1002E0006D0815436408C2071443039A01261205DA
:1002F000C01A91413605001C7141CE0740083043B9
:100300004908C01851412A46234600F09CF9CDE720
:10031000FFE7049801224000C117121A00238B4105
:1003200004983146C417381AA141EEE730B40124CD
:10033000E407634030BC55E730B40124E407614072
:1003400030BC4FE70000E0FFF0B51FB488B00B9958
:100350000998002448400999C00F490049080991AB
:10036000C0070B990090490049080B91099908981A
:10037000A64608431CD00B990A98084318D0099840
:1003800001244000420D4800410D09982405000356
:10039000000B204309900B980003000B20430B90A7
:1003A00050181C494018002201901446104605E0E0
:1003B000002001460DB0F0BD032801DA034600E03D
:1003C00003239C46C11A0AAE0AE05F0008ADED5B4C
:1003D0004F00F75B7D430027AA187C41491C5B1E38
:1003E0006145F2DD410004AB5A522104120C0A436C
:1003F000240C401C0828DFDB01980290009970460D
:1004000001910090059B049A0799069800F028F93D
:10041000D0E700000DFCFFFFF0B50C465C4085B056
:10042000E40FE40703944C00002664085900944646
:10043000490802460296224321D062460A431ED052
:100440006200570D4A000E032303550D0124024696
:100450002C492405781B1B0B360B401823432643DD
:10046000614600901C46501AB44103D30098401CCA
:10047000009002E0921800985B41002803DA002007
:10048000014605B0F0BD002001210905074686465A
:1004900011E064461D46141BB54106D36546521B48
:1004A000B341744607430C43A646CD0740084908AC
:1004B000284392185B4105460D43EAD11046184384
:1004C00013D06046194650407140084306D060463C
:1004D000101AB34106D20122002306E000220123B4
:1004E000DB0702E00122D243531000987446010555
:1004F000381C6141029C039D0019694100F0A3F87A
:10050000BFE70000FD0300004A0009030123090BB7
:100510001B0519430A4B10B5520D9A4202DA00200E
:10052000014610BD064B34339A4203DC9A1A00F0A0
:1005300066F810BD034BD21800F051F810BD000052
:10054000FF030000CDFBFFFF10B5002904DB0124F1
:10055000E40740428C412146002B04DB1C4601236A
:10056000DB075242A341994200D1904210BD0000E6
:100570001CB5094800900948019005460126009CD9
:1005800005E0E36807CC33430C3C98471034AC4299
:10059000F7D3FFF7E3FD00000C3900082C39000801
:1005A00070B50446002903D000202022012310E06A
:1005B000002801D00020C043C046C0460DE02546BB
:1005C000D5408D4205D30D469540641B1D46954090
:1005D00040191546521E002DF1DC214670BD10B5A4
:1005E000202A04DB0146203A9140002010BD9140B2
:1005F00020239C1A0346E3401943904010BD10B5D8
:10060000202A04DB0846203AD040002110BD0B46CA
:10061000D340D0402024A21A91400843194610BD6F
:1006200010B5202A06DBCB170846203A1041C11727
:100630000B4306E00B461341D0402024A21A914000
:100640000843194610BD10B5002B08DA0024401CE1
:10065000614192185B411A4301D14008400010BD2E
:10066000F0B51FB482B005460C0003D0084601F077
:100670002BFF02E001F028FF2030024600902146C7
:100680002846FFF7ACFF049B059A04460F46184323
:100690001143084314D0184610431BD00098402142
:1006A0000A1A18460599FFF7AAFF05460E46009A52
:1006B00005990498FFF793FF084305D0012004E053
:1006C0002046394607B0F0BD0020C11705430E4350
:1006D0002C43374300990E986305401A7905E40AC4
:1006E00000220C43FD0A0A3002D500200146E9E74A
:1006F0000105101969410C9C0D9D00196941FFF716
:10070000A2FFDFE780B582B0104801F081FAF5481A
:1007100001F07EFAF24801F07BFA0920C0060121BF
:1007200000910022019240F2C07300F072FE009925
:10073000019AEE48032300F06CFE0099019A0448E8
:10074000044B00F066FE02B080BDC04613050000F9
:1007500000080048C71D000080B5102000F0D6F842
:10076000012000F0EDF8642000F0A0FD80BD80B510
:1007700086B005901020049040F2281003902420A9
:1007800000F0C4F800200190FFE701980399884227
:100790001BD2FFE700200290FFE7029804998842ED
:1007A0000ED2FFE705980299019B049A5A438918D3
:1007B000405C00F0C5F8FFE70298401C0290ECE7AF
:1007C000FFE70198401C0190DFE700F091F806B0C8
:1007D00080BD000080B584B0C14801F019FA09203D
:1007E000C00601900121039100220292132300F020
:1007F00010FE029A0399BD48C02300F00AFE01983A
:100800000299039A202300F004FE04B080BDC04684
:1008100080B586B0B54800908021029100F0D4FDEB
:100820000A20019000F042FD0098029900F0D4FDEA
:10083000019800F03BFD00F09DF8122000F066F8F2
:1008400000F098F80120059000F060F85520049021
:1008500000F076F8059800F073F8059800F070F84D
:10086000112000F053F8059800F06AF8442000F0D9
:100870004DF80020039000F063F80F2000F060F8BE
:10088000452000F043F8049800F05AF8059800F06D
:1008900057F8039800F054F8039800F051F83C2002
:1008A00000F034F8052000F04BF8182000F02EF886
:1008B000029800F045F8212000F028F8039800F095
:1008C0003FF8029800F03CF84E2000F01FF8039823
:1008D00000F036F84F2000F019F8049800F030F8D6
:1008E000059800F02DF800F045F806B080BDC04630
:1008F00080B5222000F00AF8F72000F021F820202F
:1009000000F004F800F036F880BD000080B584B037
:1009100003A9009108700920C006019010210291DE
:1009200000F052FD7148402100F04EFD0098007823
:1009300000F0ABFB0198029900F04EFD04B080BDC1
:1009400080B584B003A9009108700920C006019009
:100950001021029100F038FD6448402100F03CFD78
:100960000098007800F091FB0198029900F034FDA6
:1009700004B080BD80B5FFE70920C006202100F04B
:1009800033FD08B9FFE700E0F6E780BDFFE7FEE7CB
:1009900010B596B01590524801F03AF9514801F05F
:1009A00037F9514801F034F90920C00601900221BD
:1009B000099100220792C023029300F02AFD0198BA
:1009C000029B079903220B9200F06AFD0198029A9C
:1009D0000121089100F098FC079A09990B9B434864
:1009E000039000F016FD039807990B9B1A4600F040
:1009F00057FD039808990B9A00F086FC3C480C9030
:100A000001F0E8FA11A8049001F09AFB099800F0AF
:100A100017FE0499079A03460C980E930E9C354BCB
:100A2000B4FBF3F4641E0C80159CB3FBF4F35B1E63
:100A300013934A808A808A8101F03CFB0FA80590BD
:100A400001F0BFFA059A0799089B0C980F939180C3
:100A500001F086F9059A08990C9801F081F9059A38
:100A600009990C9801F07CF9059A0B990C9801F002
:100A700077F907990C986022069201F019FA069A04
:100A800008990C9801F014FA069A09990C9801F04B
:100A90000FFA069A0B990C9801F00AFA07990C982C
:100AA000139A521C53080DAA0A921380128801F05F
:100AB0005FFA08990A9A0C98128801F059FA099974
:100AC0000A9A0C98128801F053FA0A9A0B990C981A
:100AD000128801F04DFA0C9801F0E2FA16B010BD40
:100AE0001105000012050000010700000004004885
:100AF0000004004040420F007047000084B003A98A
:100B0000088001A900200880FFE701A80088F949B2
:100B1000898A884224DAFFE702A900200880FFE7DB
:100B200002A80088F349498A884213DAFFE702A83D
:100B3000008801A90B88EF494A8A5A43801800901F
:100B400003980968009A8854FFE70298401C02A99C
:100B50000880E5E7FFE70198401C01A90880D4E779
:100B600004B0704770B58EB01C4615460E46139AF9
:100B7000129B0DA908800CA806800B950A9409AC5D
:100B8000238008AB1A800B9A079209880691008887
:100B90000590FFE70798007800B961E107980078B1
:100BA0007F2800DDA7E000200290FFE702980A9965
:100BB0008988884200DB95E0079800780A990968DF
:100BC000029BA6225A43895C884200D085E00A989D
:100BD0000068029AA62151434018801C0190002011
:100BE0000390FFE703980A994989884274DAFFE77E
:100BF00000200490FFE704980A99098988425DDA89
:100C0000FFE709A80088FF281CD1FFE701980078BA
:100C10000499CA17520F8A1807239A438A1A802107
:100C2000D14008420DD0FFE7069804994018059975
:100C3000039A891808AA128880B289B200F05CF978
:100C4000FFE728E0019800780499CA17520F8A1824
:100C500007239A438A1A8021D14008420DD0FFE72A
:100C60000698049940180599039A891808AA1288C9
:100C700080B289B200F040F90CE00698049940185F
:100C80000599039A891809AA128880B289B200F0DE
:100C900033F9FFE7FFE70498C117490F411807220E
:100CA0009143401A072804D1FFE70198401C0190A6
:100CB000FFE7FFE70498401C04909CE70A98007A3D
:100CC000400720B1FFE70198401C0190FFE7FFE7D4
:100CD0000398401C039085E704E0FFE70298401C5E
:100CE000029063E70798401C07900A98C18806980D
:100CF00040180690B3E000200290FFE702980A999E
:100D00008988884200DBA1E0079800780A99096881
:100D1000029BA6225A43895C884200D091E0079842
:100D200040780A990968029BA6225A438918497893
:100D3000884200D085E00A980068029AA6215143B3
:100D40004018801C009000200390FFE703980A9948
:100D50004989884274DAFFE700200490FFE704988D
:100D60000A99098988425DDAFFE709A80088FF2807
:100D70001CD1FFE7009800780499CA17520F8A180F
:100D800007239A438A1A8021D14008420DD0FFE7F9
:100D90000698049940180599039A891808AA128898
:100DA00080B289B200F0A8F8FFE728E00098007848
:100DB0000499CA17520F8A1807239A438A1A802166
:100DC000D14008420DD0FFE70698049940180599D4
:100DD000039A891808AA128880B289B200F08CF8A8
:100DE0000CE00698049940180599039A891809AAF5
:100DF000128880B289B200F07FF8FFE7FFE704981D
:100E0000C117490F411807229143401A072804D1FE
:100E1000FFE70098401C0090FFE7FFE70498401CA4
:100E200004909CE70A98007A400720B1FFE70098F9
:100E3000401C0090FFE7FFE70398401C039085E704
:100E400004E0FFE70298401C029057E70798801CD7
:100E500007900A980189069840180690FFE799E6DE
:100E60000EB070BDB0B586B00C460A99059004A8C6
:100E7000048003AC228002AA138001AA1180814A57
:100E80000021116005991160049911810399518124
:100E9000019991810078400728B9FFE704A80088EC
:100EA000C008009005E004A80088C008401C00901D
:100EB000FFE7009873494882039888820298C881A6
:100EC0000020088202A8008828B1FFE702A8008855
:100ED000B42806D1FFE704986A4988800398C8803F
:100EE00005E00398674988800498C880FFE706B04A
:100EF000B0BDC0469812002089B0034608A8038000
:100F000007AB198006A90A8000885E498988884253
:100F100007DCFFE707A800885A49C988884201DD35
:100F2000FFE7ADE05748C089019070B1FFE7019835
:100F30005A2811D0FFE70198B42818D0FFE701988C
:100F400040F20E11884220D02AE0089805A90880B6
:100F5000079804A9088024E04A4801890798C043FB
:100F6000401805A90880089804A9088019E0454898
:100F700002890899C943891805AA118041890798EF
:100F8000C043401804A908800BE0079805A9088011
:100F90003C4841890898C043401804A9088000E0F3
:100FA0006EE03848008A009003282CD800998A0007
:100FB00001A080188746C04600F006B800F005B8CA
:100FC00000F00BB800F011B81EE02E48018905981A
:100FD000C043401805A9088016E02A4841890498B2
:100FE000C043401804A908800EE0264802890599EC
:100FF000C943891805AA118041890498C043401843
:1010000004A9088000E03BE005A800881D49098983
:10101000884207DCFFE704A800881A49498988420A
:1010200001DDFFE72CE005A80088C10804A80388BB
:101030001448428A5A438918039100680399405C16
:1010400002A9087006A8008868B9FFE7029805A9F8
:101050000A8807210A408021D1408843094909684C
:10106000039A88540CE0029805A90A8807210A40CF
:101070008021D140084303490968039A8854FFE757
:1010800009B0704798120020704780B584B003A95A
:1010900008700920C006022100F096F902A900207C
:1010A0000870FFE702A80078072827DCFFE703A8FD
:1010B00000780006002806D5FFE70920C0060121B8
:1010C00000F08AF905E00920C006012100F07CF952
:1010D000FFE70920C00600900221019100F07CF991
:1010E0000098019900F070F90398400003A9087076
:1010F000FFE70298401C02A90870D3E704B080BD46
:101100007047000080B584B002900298401E000E27
:1011100018B1FFE70120039011E00298401E094931
:10112000086000200190C043032100F063F801989B
:1011300005490860054A072111600390FFE70398FD
:1011400004B080BD14E000E018E000E010E000E032
:1011500080B500F09FF880BD10B582B01D490868C9
:10116000012210430860FFE71A4800688007002842
:1011700001D4FFE7F8E718490868032290430860A4
:10118000144B1868154C204018600868144B184020
:1011900008600868134B18400860134908680F235B
:1011A000984308601149086840F2031398430860A7
:1011B00008689207904308600D490020019008607C
:1011C00000F0B6FD01990120C00600F027FA02B038
:1011D00010BDC0460010024004100240FFFFF2FEA6
:1011E0000C00FF08FFFF007F2C100240301002406F
:1011F0000810024070B582B0024601A8027000914A
:1012000000214056002816D4FFE7002401A9085702
:101210000322D3431840174A805809578C07E50E1C
:10122000FF24AC40A043009CA401E4B2AC402043A6
:10123000194088501AE001A908780F242040083886
:101240000322D34318400A4A8058002549578D0786
:10125000EE0EFF25B540A843009DAD01EDB2B540AF
:1012600028432140083919408850FFE702B070BD7B
:101270001CED00E000E400E081B0009000980A4915
:101280000860FFE70848006808B1FFE7FAE701B027
:101290007047C0460448006828B1FFE70249086863
:1012A000401E0860FFE77047B012002082B0019036
:1012B000FFE70198411E019150B1FFE705480090FA
:1012C000FFE70098411E009108B1FFE7F9E7F0E75A
:1012D00002B07047E02E000080B582B0019000910E
:1012E00001A80178064801F001F8FFE70448054924
:1012F00001F05FF808B9FFE7F8E7019802B080BD98
:10130000004400400707000086B005900491039256
:101310000598006A01900598406A009002A9002093
:101320000880FFE702A8008807281DD8FFE702A869
:1013300001880398C840C00780B1FFE702A8018870
:1013400089000F228A4001999143019104990088F4
:1013500080008140019808430190FFE7FFE7029871
:10136000401C02A90880DDE702A908200880FFE7E9
:1013700002A800880F281FD8FFE702A80188039859
:10138000C840C00790B1FFE702A801888900203952
:101390000F228A40009991430091049900888000AF
:1013A00020388140009808430090FFE7FFE702984B
:1013B000401C02A90880DBE70198059908620098A3
:1013C0000599486206B0704782B00190009100987C
:1013D0000199886202B0704782B001900091009834
:1013E0000199886102B0704783B001900091019823
:1013F00000690099084204D0FFE702A901200870A3
:1014000003E002A900200870FFE702A8007803B0FB
:10141000704787B006900591049203930698006880
:1014200001900698C068009002A900200880FFE79C
:1014300002A800880F282BD8FFE702A8018803988C
:10144000C840C007F0B1FFE702A8018849000322A5
:1014500013468B40019999430191059B01884900EE
:101460008B40019919430191018849008A400099F4
:1014700091430091049900884000814000980843FE
:101480000090FFE7FFE70298401C02A90880CFE721
:1014900001980699086000980699C86007B07047DF
:1014A00010B586B0059004A80170039202930078ED
:1014B000012806D1FFE7029A059948681043486061
:1014C00005E0029A0599486890434860FFE705984F
:1014D0008068009001A900200880FFE701A800882B
:1014E0000F281DD8FFE701A801880298C840C0074F
:1014F00080B1FFE701A80188490003228A400099D2
:10150000914300910399008840008140009808436E
:101510000090FFE7FFE70198401C01A90880DDE784
:1015200000980599886006B010BD000080B58AB0AB
:101530000020099000F000FCFFF7E4F800F07EFEC8
:101540007B20089008992D4800F0AEFF40F2E8306B
:10155000FFF71EFAFFF73EF9FFF75AF9FFE7FFF72B
:1015600057F9FF200490009025480790802140F211
:10157000281240F20E13FFF775FC0498FFF7BEFA2D
:10158000049800210391019100901E4A1E4B06937E
:101590000A200590FFF7E6FA039A04990598069B3E
:1015A00001920091194A1521FFF7DCFA039A049978
:1015B0000598069B01920091154A2A21FFF7D2FA5D
:1015C000039A04990598069B01920091114A3F21C4
:1015D000FFF7C8FA039A04990598069B01920091B7
:1015E0000D4A5421FFF7BEFA0798FFF7C0F8FFF73E
:1015F000B3F840F2E830FFF73FFEB0E7C638000826
:1016000018000020FC38000804000020F53800080D
:1016100003390008DF380008EA38000882B001907A
:10162000009101980099044A114008430349086059
:10163000BFF34F8F02B0704780FFFF1F08ED00E03F
:10164000A0B01FA90870002002901E901D901C9051
:101650001B901A901990189017901690159014904E
:1016600013901290119010900F900E90F9490D91D7
:10167000F9490C910B900A900991089007910690F6
:1016800005910490F54800680C21084080081E90E0
:101690001E98039040B1FFE70398012807D0FFE7A9
:1016A0000398022806D065E0ED481A9065E0ED4801
:1016B0001A9062E0E94801683F2292041140890CC7
:1016C000139100680121C9060840C00E12901298BB
:1016D000800113994018139013980F2804D3FFE743
:1016E0001398401C13900BE013980F2803D1FFE7C9
:1016F0001020139003E01398801C1390FFE7FFE77E
:10170000D6480068032109040840000C1190119884
:1017100070B9FFE7D44800680F210840401C1090C2
:101720001099CF48B0FBF1F1139848431A9020E08C
:10173000119801280ED1FFE7CB4800680F2108401F
:10174000401C10901099C748B0FBF1F11398484322
:101750001A900DE0C44800680F210840401C10900A
:101760001099C248B0FBF1F1139848431A90FFE773
:10177000FFE702E0BA481A90FFE7B8480168C9B22B
:1017800009090F910F9A0AA9895C0E911A990E9A6C
:10179000D1401991016840F200721140090A0F917D
:1017A0000F9A08A9895C0E9119990E9AD140189147
:1017B000006843F600010840C00A0F900F9906A880
:1017C000405C0E9019980E99C84017901FA8007899
:1017D00001900B2800D90FE201998A0001A080181E
:1017E0008746C04600F016B800F017B800F018B8E9
:1017F00000F019B800F01AB800F0EBB800F0FCB92E
:1018000000F0FAB900F0F8B900F06FB900F01CB9B7
:1018100000F0AEB91A981B90EFE119981B90ECE11B
:1018200018981B90E9E117981B90E6E1F7480068CB
:1018300040F200110840884203D0FFE7F1481690BB
:10184000C4E0EF48006880B2800B1D90EF4800684C
:10185000800F1C901D980090032800D9B4E00099D7
:101860008A0001A08018874600F006B800F02EB864
:1018700000F056B800F080B81C9820B9FFE7179820
:101880004008169021E01C98012806D1FFE7179820
:101890000A21B0FBF1F0169016E01C98022806D140
:1018A000FFE719980321B0FBF1F016900BE01C98AC
:1018B000032806D1FFE719980B21B0FBF1F0169031
:1018C00000E0FFE7FFE7FFE7FFE77EE01C9820B9B5
:1018D000FFE717988008169021E01C98012806D190
:1018E000FFE717980C21B0FBF1F0169016E01C985A
:1018F000022806D1FFE719980521B0FBF1F01690F8
:101900000BE01C98032806D1FFE719980D21B0FBC6
:10191000F1F0169000E0FFE7FFE7FFE7FFE754E094
:101920001C9830B9FFE717980621B0FBF1F016902C
:1019300021E01C98012806D1FFE717980E21B0FB83
:10194000F1F0169016E01C98022806D1FFE71998CE
:101950000721B0FBF1F016900BE01C98032806D18C
:10196000FFE719980F21B0FBF1F0169000E0FFE7B8
:10197000FFE7FFE7FFE728E01C9820B9FFE717988B
:10198000C00816901FE01C98012804D1FFE71798A3
:101990000009169016E01C98022806D1FFE7199856
:1019A0000921B0FBF1F016900BE01C98032806D13A
:1019B000FFE719981121B0FBF1F0169000E0FFE766
:1019C000FFE7FFE7FFE700E0FFE7FFE716981B9060
:1019D00013E18E480068800718B9FFE71798159043
:1019E0002FE08A48006803210840012803D1FFE75F
:1019F0001A98159024E085480068032108400228C1
:101A000004D1FFE748F20000159018E07F48006815
:101A100003210840032810D1FFE77C480068072114
:101A200089040840800C0F900F9904A8405C0E9028
:101A30000E997548C840159000E0FFE7FFE7FFE703
:101A4000FFE715981B90D8E0704800688003800F6E
:101A500088B90DE0060708090102030404100240DA
:101A60000024F40000127A002C100240006CDC020A
:101A70001898159036E0654800680321090408406D
:101A800001210904884203D1FFE71A98159028E044
:101A90005E48006803210904084001214904884286
:101AA00004D1FFE748F20000159019E0574800689C
:101AB000032109040840884210D1FFE75348006819
:101AC000072189040840800C0F900F9904A8405CFE
:101AD0000E900E994C48C840159000E0FFE7FFE7D4
:101AE000FFE7FFE715981B9087E048480068C004AF
:101AF000800F18B9FFE71898159036E04348006842
:101B000041F60001084040F60001884203D1FFE79A
:101B10001A98159028E03D48006841F600010840F9
:101B200041F20001884204D1FFE748F2000015901D
:101B300019E03648006841F600010840884210D19B
:101B4000FFE732480068072189040840800C0F90A5
:101B50000F9904A8405C0E900E992B48C840159030
:101B600000E0FFE7FFE7FFE7FFE715981B9044E081
:101B7000264800684005800F18B9FFE718981490B0
:101B800037E02248006840F20061084040F200213E
:101B9000884204D1FFE747F60050149028E01B4824
:101BA000006840F20061084040F20041884204D1E0
:101BB000FFE748F20000149019E01448006840F272
:101BC00000610840884210D1FFE7104800680721F3
:101BD00089040840800C0F900F9904A8405C0E9077
:101BE0000E990948C840159000E0FFE7FFE7FFE7BE
:101BF000FFE714981B9000E0FFE71B9820B07047A8
:101C000004100240006CDC020024F400301002409A
:101C100081B001466846018000881F2201461140BC
:101C200001238B4081093F4A88581843885001B0EE
:101C30007047C04681B001466846018000881F2277
:101C40000146114001238B408109364A8858984348
:101C5000885001B07047C04681B001466846018097
:101C600000881F220146114001238B4081092D4A23
:101C700088581843885001B07047C04685B000208E
:101C800004900390274A116801231B041943116033
:101C90000290FFE70298400B28B9FFE7FFE70298A0
:101CA000401C0290F6E7FFE70498401C04901D4892
:101CB00000680121490408400390FFE703990020D0
:101CC000019039B9FFE704981749401A411E88412D
:101CD0000190FFE70198C0070028E5D1FFE7114810
:101CE00000688003002802D4FFE7FFE7FEE70F4902
:101CF000009108680860086808600868086008685B
:101D00000322904308600868012210430860FFE73F
:101D1000064800680C210840042801D0FFE7F7E7D7
:101D200005B0704700100240FFFF000004100240A1
:101D300080B5FFF7A3FF80BD80B50848006840F27A
:101D4000E831B0FBF1F0FFF7DDF910B1FFE7FFE795
:101D5000FEE70021C843FFF74DFA80BD10000020C8
:101D600085B0049003A801800292008800900328A7
:101D700000D999E000998A0001A080188746C046E2
:101D800000F006B800F024B800F045B800F067B8DD
:101D90000499086A01229043086204998869032221
:101DA00090438861029802680499086A10430862A7
:101DB0000498006A019001980221884301900298DA
:101DC00081880198084301900198049908626CE0A9
:101DD0000499086A1022904308620499886940F2C5
:101DE0000032904388610298006802010499086AF1
:101DF000104308620498006A0190019820218843EA
:101E0000019002988088010101980843019001988F
:101E10000499086249E00499086A40F2001290436C
:101E200008620499C86903229043C8610298006857
:101E300002020499086A104308620498006A01903B
:101E4000019840F2002188430190029880880102A5
:101E500001980843019001980499086225E00499CB
:101E6000086A41F20002904308620499C86940F28E
:101E700000329043C8610298006802030499086A1E
:101E8000104308620498006A0190019842F2000130
:101E900088430190029880880103019808430190CB
:101EA00001980499086200E0FFE705B07047000060
:101EB00085B0049003A8018002A90A8000880090E0
:101EC000032851D800998A0001A080188746C0468F
:101ED00000F006B800F014B800F024B800F032B8F2
:101EE000049880690190019870218843019002A8AC
:101EF000018801980843019001980499886134E0B1
:101F0000049880690190019847F20001884301908C
:101F100002A80088010201980843019001980499E1
:101F2000886122E00498C06901900198702188437B
:101F3000019002A801880198084301900198049932
:101F4000C86112E00498C0690190019847F200014D
:101F50008843019002A8008801020198084301907B
:101F600001980499C86100E0FFE705B070470000E0
:101F700084B0039002A80180019200880090032899
:101F80001CD800998A0001A08018874600F006B886
:101F900000F008B800F00AB800F00CB801980399F6
:101FA00048630CE001980399886308E0019803995D
:101FB000C86304E001980399086400E0FFE704B0F7
:101FC000704781B0009000990020086000998880D7
:101FD00001B0704780B588B007900798069001213E
:101FE0008907884219D0FFE70698534988421DD0D7
:101FF000FFE706985149884220D0FFE7069821491B
:10200000884223D0FFE706981F4988422ED0FFE779
:1020100006981E49884221D031E040F200400590E8
:10202000FFF71AFE0598FFF705FE29E01B4804900C
:10203000FFF712FE0498FFF7FDFD21E0164803901C
:10204000FFF70AFE0398FFF7F5FD19E0114802902B
:10205000FFF702FE0298FFF7EDFD11E00C4801903A
:10206000FFF7FAFD0198FFF7E5FD09E040F20840AF
:102070000090FFF7F1FD0098FFF7DCFD00E0FFE7BF
:1020800008B080BD0014004000180040004C014022
:102090000B0300000504000004040000010400001C
:1020A00081B000900099086801221043086001B0D7
:1020B0007047000082B0019000910098008801995B
:1020C0008862019801218907884205D0FFE70198BD
:1020D0001949884212D1FFE701990868702290439C
:1020E00008600098428801990868104308600098C9
:1020F00082880199086810430860FFE700988068AB
:102100000199C86201980D4988420DD0FFE70199F5
:10211000086840F200329043086000988289019973
:10212000086810430860FFE70199486901221043DD
:10213000486102B07047C0460004004000100040F3
:1021400081B0009000990020088000994880009993
:102150008880009A024991600099888101B0704797
:10216000FFFF000080B588B0079006910020059021
:10217000049003900290079801908149884214D0FE
:10218000FFE701987F49884214D0FFE701987E4914
:10219000884214D0FFE701987C49884214D1FFE7B8
:1021A0000520FFF74DFA05900FE00A20FFF748FAE7
:1021B00005900AE00220FFF743FA059005E00220AF
:1021C000FFF73EFA059000E0FFE70798006800047B
:1021D000002818D5FFE70598400006994A0880189E
:1021E000B0FBF1F002900298134908400490029865
:1021F0000007400F039004A8008803A9098808433A
:102200000799C86016E0059806994A088018B0FB3F
:10221000F1F00290029808490840049002980F21BA
:102220000840039004A8008803A909880843079977
:10223000C860FFE708B080BDF0FF000080B588B03F
:102240002848FFF7E5FC2848FFF7E2FC0920C00614
:1022500002900721009104220592FFF755F800999A
:10226000029808220692FFF74FF80298059B022178
:10227000019101220392FFF7CCF80298039A059B83
:1022800000210491FFF70CF901990298039A069B2B
:10229000FFF7BFF80298039A0499069BFFF700F92D
:1022A0003748079000F030F80499079800F0E7F8F5
:1022B0000499079800F0BFF80499079800F097F880
:1022C000079842F28051FFF74DFF0599079800F0FB
:1022D000A3F80699079800F0C3F8079800F060F893
:1022E00008B080BD110500001107000082B0019008
:1022F000684601800088034908400199886202B05D
:102300007047C046FF01000080B586B00590059873
:1023100004901B49884217D0FFE704981949884266
:102320001AD0FFE70498184988421DD0FFE70498A7
:102330001649884220D1FFE718480390FFF78CFC2C
:102340000398FFF777FC18E013480290FFF784FC2E
:102350000298FFF76FFC10E00E480190FFF77CFC3D
:102360000198FFF767FC08E009480090FFF774FC4C
:102370000098FFF75FFC00E0FFE706B080BDC046B5
:1023800000440040004C0040005000400038014034
:102390001404000013040000110400000E030000E8
:1023A00081B000900099086801221043086001B0D4
:1023B000704784B0009101460098029101A90880FD
:1023C00002980A889209805809881F221140C84043
:1023D000C00720B1FFE703A90120087003E003A9AB
:1023E00000200870FFE703A8007804B0704782B0AF
:1023F00001900091019908680122904308600199B9
:10240000086840F2006290430860009A01990868E9
:102410001043086002B0704782B0019000910199AA
:102420000868042290430860009A019908681043E4
:10243000086002B0704782B001900091019908686D
:102440000122904308600199486843F200029043DA
:102450004860009A019948681043486002B070478C
:1024600082B00190009101990868082290430860A9
:10247000009A019908681043086002B0704782B062
:102480000190009101990868012290430860019928
:10249000086841F2000290430860009A01990868B8
:1024A0001043086002B070470FB410B503A9044B85
:1024B000044A029800F0E8F810BC08BC04B01847C1
:1024C000D9120008000000202021020C01D01021A8
:1024D0001046020A01D010460839020901D0104600
:1024E000091F820801D01046891E420801D0881EAB
:1024F0007047081A704702E008C8121F08C1002A76
:10250000FAD170477047002001E001C1121F002A74
:10251000FBD17047F0B51FB486B00998089A030D37
:102520000021024314D05148514A18185043051451
:102530001198012810981AD0281A401C00264D4FD7
:102540004D49009601910490002812DA444211E0AE
:102550001198012449A3012801D11098C14306987C
:10256000119A84600360C26041600BB0F0BD4042CC
:10257000E4E70446210500203F4A001C5141039135
:10258000029012E0E00707D032463B4601990098DE
:10259000FDF7DAFE0191009032463B46104619469F
:1025A000FDF7D2FE06460F466410002CEAD10498CF
:1025B000039B0028029A0999089806DAFDF7C4FEE1
:1025C000019B009AFDF7C0FE05E0FDF725FF019B8A
:1025D000009AFDF721FF04460E460022284BFDF726
:1025E000B3FF03D80020C043014607E00022254B7B
:1025F00020463146FDF7F6FDFDF786FF102409E081
:10260000002C0ADB0A220023FDF7BCFD079B3032B9
:102610001A55641E02460A43F2D11122641C079B1C
:10262000121B1C19119B012B03D0012308430ED14F
:102630000AE0084304D0112010900020119077E7A1
:102640001098151A6D1E0BE01098824202DD0023CF
:102650006D1C03E0824201DA00236D1E002BEED0D8
:10266000069811998260C16030C07EE701FCFFFFCF
:10267000104D0000000014400000F03F300000004A
:102680000000F0430000E03FFFB597B0064600258C
:1026900018E2252877D100242746FD49049400E05C
:1026A0000443761C32780120203A90400842F7D14A
:1026B00030782A280ED00222307801463039092994
:1026C00016D804990A235943303940181443761C0C
:1026D0000490F1E7189802C804911890002904DAD0
:1026E0000120400304434842049002200443761C26
:1026F00030782E2814D1042004437078761C2A28C0
:1027000009D11898761C80C8189009E00A214F4317
:10271000303FC719761C3078014630390929F5D980
:1027200030786C2810D006DC4C281AD068280ED0DF
:102730006A2817D104E0742813D07A2812D110E047
:102740000120400504430CE00121090501E00321BB
:1027500009050C437178814203D10120000524183A
:10276000761C761C3078119066280BD013DC582824
:102770007DD009DC00287BD04528F6D04628F4D04F
:1027800047281AD1A5E118E0632835D0642870D015
:10279000652812D19DE170286CD008DC6728F1D043
:1027A00069287BD06E280DD06F2806D1BAE0732837
:1027B0002ED0752871D0782859D01A9A1999904737
:1027C0006D1C7EE16002400F022809D003280DD065
:1027D0000428189801680DD00D60001D189070E154
:1027E0001898EA1701680D604A60F6E718980168C2
:1027F0000D80F2E70D70F0E718986A4601781172C3
:10280000001D18900020507202A80090012005E0E1
:10281000189802C8189000200091C04361070DD598
:10282000002101E00199491C0191B94212DA81426B
:10283000F8DB009A515C0029F4D10BE0002101E0A3
:102840000199491C01918142FADB019A0099895C46
:102850000029F5D1019904981A9B471A2146384658
:10286000199A00F097FA0199401945180BE04FE0CA
:102870002CE113E04EE0009800990078491C00918B
:102880001A9A199990470198401E0190401CF2D164
:10289000214638461A9B199A10E137E00A20002198
:1028A000009001916002410F022907D0189A01CAD5
:1028B0001892C2179446032908D00AE01898C01D40
:1028C000C108C90005C91891944607E000B2C217B3
:1028D0009446042902D140B2C1178C4600226146B9
:1028E000944506DA0A460021404291418C462D214A
:1028F00002E0210504D52B216A461173012103E072
:10290000E10701D02021F7E7029155E00A200AE013
:10291000102008E0102000900021042004430191C1
:10292000082703E008200021019100906002410F78
:10293000022907D0189A01CA189200229446032946
:1029400008D008E01898C01DC108C90005C9189131
:10295000944603E080B2042900D1C0B20021029164
:10296000210729D51199702906D0009A1021019BC1
:102970004A401A4305D00EE040216A4611730121F6
:1029800008E06146014306D030216A46117311996F
:10299000517302210291009A0821019B4A401A4377
:1029A0000AD16146014301D1610705D530216A464C
:1029B000117301217F1E02911199582904D035A16C
:1029C0000E910DA90D910DE037A1F9E76146019B2C
:1029D000009AFDF7D7FB0E9B8C469B5C0D9A521E0E
:1029E0000D92137061460143F0D10D9805A9081AA4
:1029F00020300190600703D501200004844300E0EB
:102A000001270198874201DD381A00E00020019972
:102A100000904118029809180498401A0490E003A5
:102A200006D421461A9B199A049800F0B3F9451967
:102A3000002706E003A81A9AC05D199990476D1CFB
:102A40007F1C02988742F5DBE0030CD521461A9BD8
:102A5000199A049800F09EF9451904E01A9A30205A
:102A6000199990476D1C0099481E00900029F5DCCB
:102A700008E00D980D990078491C0D911A9A199942
:102A800090476D1C0199481E01900029F1DC63E11B
:102A90000928010030313233343536373839616234
:102AA00063646566000000003031323334353637F8
:102AB00038394142434445460000000000F05AF9CD
:102AC0004519761C3078002800D0E2E528461BB076
:102AD000F0BD600700D406271898C01DC108C900C2
:102AE00048680A680831C30FDB071891190001D044
:102AF0009CA108E0210501D59BA104E0E10701D0DC
:102B00009AA100E09AA1430011985B0810916528F2
:102B10000CD006DC452809D046281DD0472841D1D5
:102B200041E0662818D067283CD13CE00021112FF5
:102B300001DB112000E0781C0191009008A911A888
:102B4000FFF7E8FC139905910021119A15927F1C5B
:102B500012980197009150E00120C00703900120D6
:102B6000019008A9009711A8FFF7D4FC139A1499B3
:102B700005920022119B009212981593059A0192DA
:102B8000002901D0104602E0791C40180190381A43
:102B900001D5019804E04042401E0090781C01904D
:102BA000C01B029043E0012F00DA01270021112F02
:102BB00001DD112000E038460191009008A911A81C
:102BC000FFF7A8FC13990591119A0021129815920C
:102BD0000091019721070CD40599B94201DB0199B5
:102BE00000E00191012904DD159A491E515C30294C
:102BF00006D0B84201DA011D05DA0121029115E083
:102C00000199491EEDE7002805DC00994118009163
:102C10000199091A03E0019A411C914200DD0191DA
:102C20000099401A401C02900120C0070390200721
:102C300006D402990198814202DB0020C043029031
:102C400000206946C87707AF012103980337C907F9
:102C5000884224D0022011902B2012900398002843
:102C60000CDA404203902D20129007E00A210398CD
:102C7000FDF796FC30317F1E039039701199481E84
:102C800011900029F2DC03980028EFD1791E1298E8
:102C900008703078202108404530BF1E387006A8E3
:102CA000C01BC01D039010980078002800D00120A0
:102CB000019941180298C017091803980918049837
:102CC000401A401E0490E00306D421461A9B199A2C
:102CD000049800F05FF8451910980078002803D098
:102CE0001A9A199990476D1CE00324D521461A9B26
:102CF000199A049800F04EF845191CE00098002835
:102D000007DB00990598884203DD1598405C199906
:102D100001E0199930201A9A904700986D1C401CC8
:102D200000900298401E0290002804D11A9A2E208A
:102D3000199990476D1C0199481E01900029DDDC0E
:102D400005E038781A9A7F1C199990476D1C0399F1
:102D5000481E03900029F4DC21461A9B199A049816
:102D6000ACE600002D0000002B0000002000000059
:102D700000000000F8B5044600251E4617468804EA
:102D800004D405E039462020B0476D1C641EF9D5F7
:102D90002846F8BDFFB50446002581B01E46C8038D
:102DA00001D5302700E02027880404D505E0384607
:102DB0000399B0476D1C641EF9D5284605B0F0BDD7
:102DC000C4E300000000000000001DC01D803BFFA8
:102DD0003B073F777E76F870FBFEFBFE3F773F7741
:102DE0003E73387038703BE00000000000000000C7
:102DF00000000000000000000000000000000000D3
:102E000000000000000000000000000000000000C2
:102E100000000000000000000000000000000000B2
:102E200000000000000000000000000000000000A2
:102E30000000000000000000000000000000000092
:102E40000000000000000000000000000000000082
:102E50000000000000000000000000000000000072
:102E6000000000000000BAC30000000000000000E5
:102E7000300073FF700FFE1E7E3C6E38EE30EFFFA9
:102E8000FC307C3038303E307E30E030C1F0000025
:102E90000000000000000000000000000000000032
:102EA0000000000000000000000000000000000022
:102EB0000000000000000000000000000000000012
:102EC0000000000000000000000000000000000002
:102ED00000000000000000000000000000000000F2
:102EE00000000000000000000000000000000000E2
:102EF00000000000000000000000000000000000D2
:102F0000000000000000000000000000BCD700002E
:102F1000000000007FFC638C638C638C7FFC638CFF
:102F2000638C638C7FFC638C03800380038003804D
:102F30000000000000000000000000000000000091
:102F40000000000000000000000000000000000081
:102F50000000000000000000000000000000000071
:102F60000000000000000000000000000000000061
:102F70000000000000000000000000000000000051
:102F80000000000000000000000000000000000041
:102F90000000000000000000000000000000000031
:102FA0000000000000000000000000000000000021
:102FB0000000CDE900000000000030E037FC3E04D6
:102FC000FE04780073FC700037FC31B039B06DB688
:102FD0006BB6CF36441C000000000000000000006B
:102FE00000000000000000000000000000000000E1
:102FF00000000000000000000000000000000000D1
:1030000000000000000000000000000000000000C0
:1030100000000000000000000000000000000000B0
:1030200000000000000000000000000000000000A0
:103030000000000000000000000000000000000090
:103040000000000000000000000000000000000080
:103050000000000000000000D1F5000000000000AA
:1030600030003FFC60005FF840007FF819987FF85F
:1030700006187FD8061AFFFE061C060C000000008A
:103080000000000000000000000000000000000040
:103090000000000000000000000000000000000030
:1030A0000000000000000000000000000000000020
:1030B0000000000000000000000000000000000010
:1030C0000000000000000000000000000000000000
:1030D00000000000000000000000000000000000F0
:1030E00000000000000000000000000000000000E0
:1030F0000000000000000000000000000000C6F812
:1031000000000000000018003FFC20007FF8400095
:1031100000003FF000300030003000360014001C8A
:10312000000000000000000000000000000000009F
:10313000000000000000000000000000000000008F
:10314000000000000000000000000000000000007F
:10315000000000000000000000000000000000006F
:10316000000000000000000000000000000000005F
:10317000000000000000000000000000000000004F
:10318000000000000000000000000000000000003F
:10319000000000000000000000000000000000002F
:1031A00000000000D2BB0000000000000000000092
:1031B0000000000000000000FFFE00000000000012
:1031C00000000000000000000000000000000000FF
:1031D00000000000000000000000000000000000EF
:1031E00000000000000000000000000000000000DF
:1031F00000000000000000000000000000000000CF
:1032000000000000000000000000000000000000BE
:1032100000000000000000000000000000000000AE
:10322000000000000000000000000000000000009E
:10323000000000000000000000000000000000008E
:1032400000000000000000000000BBAF0000000014
:10325000000009C019C019C831DE31F871F0F1E081
:10326000F3C03FC037C431CE31CC30FC0000000089
:10327000000000000000000000000000000000004E
:10328000000000000000000000000000000000003E
:10329000000000000000000000000000000000002E
:1032A000000000000000000000000000000000001E
:1032B000000000000000000000000000000000000E
:1032C00000000000000000000000000000000000FE
:1032D00000000000000000000000000000000000EE
:1032E00000000000000000000000000000000000DE
:1032F000CCBC0000000000000060FA6423FC610008
:1033000061007FFEDB20DB20DBEC5EF85E507CDCC6
:103310007B8E41040000000000000000000000005F
:10332000000000000000000000000000000000009D
:10333000000000000000000000000000000000008D
:10334000000000000000000000000000000000007D
:10335000000000000000000000000000000000006D
:10336000000000000000000000000000000000005D
:10337000000000000000000000000000000000004D
:10338000000000000000000000000000000000003D
:10339000000000000000CEC200000000000047F85E
:1033A000660837F80608460867F820000FFC2DACC1
:1033B0006DAC6DAC6DAC5FFE000000000000000065
:1033C00000000000000000000000000000000000FD
:1033D00000000000000000000000000000000000ED
:1033E00000000000000000000000000000000000DD
:1033F00000000000000000000000000000000000CD
:1034000000000000000000000000000000000000BC
:1034100000000000000000000000000000000000AC
:10342000000000000000000000000000000000009C
:10343000000000000000000000000000B6C800000E
:103440000000000001807FFE600066107FFC6610B7
:1034500067F060006FF8663863E0C7F05C1C00003E
:10346000000000000000000000000000000000005C
:10347000000000000000000000000000000000004C
:10348000000000000000000000000000000000003C
:10349000000000000000000000000000000000002C
:1034A000000000000000000000000000000000001C
:1034B000000000000000000000000000000000000C
:1034C00000000000000000000000000000000000FC
:1034D00000000000000000000000000000000000EC
:1034E0000000B6FE00000000000000003FF80000F1
:1034F00000000000000000000000000000000000CC
:10350000FFFE0000000000000000000000000000BE
:1035100000000000000000000000000000000000AB
:10352000000000000000000000000000000000009B
:10353000000000000000000000000000000000008B
:10354000000000000000000000000000000000007B
:10355000000000000000000000000000000000006B
:10356000000000000000000000000000000000005B
:10357000000000000000000000000000000000004B
:103580000000000000000000A3BA000000000000DE
:1035900000000000000000003800380000000000BB
:1035A00000000000380038000000000000000000AB
:1035B000000000000000000000000000000000000B
:1035C00000000000000000000000000000000000FB
:1035D00000000000000000000000000000000000EB
:1035E00000000000000000000000000000000000DB
:1035F00000000000000000000000000000000000CB
:1036000000000000000000000000000000000000BA
:1036100000000000000000000000000000000000AA
:103620000000000000000000000000000000610039
:10363000000000000000000000000000000000008A
:103640003E00670007800F807F80E380E780E7808F
:103650007F8000000000000000000000000000006B
:10366000000000000000000000000000000000005A
:10367000000000000000000000000000000000004A
:10368000000000000000000000000000000000003A
:10369000000000000000000000000000000000002A
:1036A000000000000000000000000000000000001A
:1036B000000000000000000000000000000000000A
:1036C00000000000000000000000000000000000FA
:1036D0000000000062000000000000000000700018
:1036E0007000700070007F007B8071C071C071C07D
:1036F00071C071C07B807F000000000000000000EE
:1037000000000000000000000000000000000000B9
:1037100000000000000000000000000000000000A9
:103720000000000000000000000000000000000099
:103730000000000000000000000000000000000089
:103740000000000000000000000000000000000079
:103750000000000000000000000000000000000069
:103760000000000000000000000000000000000059
:1037700000000000000000000000630000000000E6
:103780000000000000000000000000003F00730087
:10379000F000E000E000E000F00073003F000000F7
:1037A0000000000000000000000000000000000019
:1037B0000000000000000000000000000000000009
:1037C00000000000000000000000000000000000F9
:1037D00000000000000000000000000000000000E9
:1037E00000000000000000000000000000000000D9
:1037F00000000000000000000000000000000000C9
:1038000000000000000000000000000000000000B8
:1038100000000000000000000000000000000000A8
:103820004100000000000000000000000E001F002A
:103830001F001F003B803B8071807FC071C0E0E0B3
:10384000E0E0E0E0000000000000000000000000F8
:103850000000000000000000000000000000000068
:103860000000000000000000000000000000000058
:103870000000000000000000000000000000000048
:103880000000000000000000000000000000000038
:103890000000000000000000000000000000000028
:1038A0000000000000000000000000000000000018
:1038B0000000000000000000000000000000000008
:1038C00000000000000048656C6C6F2C20555341CF
:1038D000525421206E756D203D2025640D0A00D2C2
:1038E000BBD1F5BBAFCCBCA3BA00B6FED1F5BBAF24
:1038F000CCBCA3BA00CEC2B6C8A3BA00BCD7CDE92F
:10390000A3BA00D1F5C6F8A3BA0000003039000808
:103910000000002018000000F624000848390008C4
:1039200018000020A0160000062500080000000076
:1039300000000000C02D000811000B001000150051
:0839400000127A0000000000F3
:040000050800015599
:00000001FF
